{
  "contractName": "Marketplace",
  "abi": [
    {
      "constant": true,
      "inputs": [
        {
          "name": "",
          "type": "address"
        }
      ],
      "name": "storeOwners",
      "outputs": [
        {
          "name": "name",
          "type": "string"
        },
        {
          "name": "balance",
          "type": "uint256"
        },
        {
          "name": "state",
          "type": "uint8"
        }
      ],
      "payable": false,
      "stateMutability": "view",
      "type": "function"
    },
    {
      "constant": true,
      "inputs": [],
      "name": "globalUnit",
      "outputs": [
        {
          "name": "",
          "type": "uint256"
        }
      ],
      "payable": false,
      "stateMutability": "view",
      "type": "function"
    },
    {
      "constant": true,
      "inputs": [
        {
          "name": "",
          "type": "address"
        }
      ],
      "name": "admins",
      "outputs": [
        {
          "name": "",
          "type": "bool"
        }
      ],
      "payable": false,
      "stateMutability": "view",
      "type": "function"
    },
    {
      "constant": true,
      "inputs": [],
      "name": "globalLockBalances",
      "outputs": [
        {
          "name": "",
          "type": "bool"
        }
      ],
      "payable": false,
      "stateMutability": "view",
      "type": "function"
    },
    {
      "constant": true,
      "inputs": [
        {
          "name": "",
          "type": "uint256"
        }
      ],
      "name": "stores",
      "outputs": [
        {
          "name": "storeId",
          "type": "uint256"
        },
        {
          "name": "name",
          "type": "string"
        },
        {
          "name": "storeOwner",
          "type": "address"
        },
        {
          "name": "state",
          "type": "uint8"
        },
        {
          "name": "balance",
          "type": "uint256"
        },
        {
          "name": "nextProductSku",
          "type": "uint256"
        }
      ],
      "payable": false,
      "stateMutability": "view",
      "type": "function"
    },
    {
      "inputs": [],
      "payable": false,
      "stateMutability": "nonpayable",
      "type": "constructor"
    },
    {
      "anonymous": false,
      "inputs": [
        {
          "indexed": false,
          "name": "_address",
          "type": "address"
        }
      ],
      "name": "AddedNewStoreOwner",
      "type": "event"
    },
    {
      "anonymous": false,
      "inputs": [
        {
          "indexed": false,
          "name": "skuAdded",
          "type": "uint256"
        }
      ],
      "name": "AddProduct",
      "type": "event"
    },
    {
      "anonymous": false,
      "inputs": [
        {
          "indexed": false,
          "name": "skuRemoved",
          "type": "uint256"
        }
      ],
      "name": "RemoveProduct",
      "type": "event"
    },
    {
      "anonymous": false,
      "inputs": [
        {
          "indexed": false,
          "name": "storeIdOwned",
          "type": "uint256"
        }
      ],
      "name": "StoreIdOwned",
      "type": "event"
    },
    {
      "anonymous": false,
      "inputs": [
        {
          "indexed": false,
          "name": "storeOwnerName",
          "type": "string"
        }
      ],
      "name": "StoreOwnerName",
      "type": "event"
    },
    {
      "anonymous": false,
      "inputs": [
        {
          "indexed": false,
          "name": "storeId",
          "type": "uint256"
        },
        {
          "indexed": false,
          "name": "name",
          "type": "string"
        },
        {
          "indexed": false,
          "name": "storeOwner",
          "type": "address"
        },
        {
          "indexed": false,
          "name": "state",
          "type": "uint8"
        },
        {
          "indexed": false,
          "name": "balance",
          "type": "uint256"
        },
        {
          "indexed": false,
          "name": "nextProductSku",
          "type": "uint256"
        }
      ],
      "name": "StoreInfo",
      "type": "event"
    },
    {
      "anonymous": false,
      "inputs": [
        {
          "indexed": false,
          "name": "sku",
          "type": "uint256"
        },
        {
          "indexed": false,
          "name": "name",
          "type": "string"
        },
        {
          "indexed": false,
          "name": "price",
          "type": "uint256"
        },
        {
          "indexed": false,
          "name": "description",
          "type": "string"
        },
        {
          "indexed": false,
          "name": "inventory",
          "type": "uint256"
        },
        {
          "indexed": false,
          "name": "active",
          "type": "bool"
        }
      ],
      "name": "ProductInfo",
      "type": "event"
    },
    {
      "anonymous": false,
      "inputs": [
        {
          "indexed": false,
          "name": "amountRequired",
          "type": "uint256"
        }
      ],
      "name": "AmountRequired",
      "type": "event"
    },
    {
      "anonymous": false,
      "inputs": [
        {
          "indexed": false,
          "name": "fundsWithdrawn",
          "type": "uint256"
        }
      ],
      "name": "WithdrewFunds",
      "type": "event"
    },
    {
      "anonymous": false,
      "inputs": [
        {
          "indexed": false,
          "name": "number",
          "type": "uint256"
        }
      ],
      "name": "EventIsAdmin",
      "type": "event"
    },
    {
      "constant": false,
      "inputs": [
        {
          "name": "_address",
          "type": "address"
        },
        {
          "name": "_name",
          "type": "string"
        }
      ],
      "name": "addStoreOwner",
      "outputs": [
        {
          "name": "newStoreOwner",
          "type": "address"
        }
      ],
      "payable": false,
      "stateMutability": "nonpayable",
      "type": "function"
    },
    {
      "constant": false,
      "inputs": [
        {
          "name": "storeName",
          "type": "string"
        }
      ],
      "name": "addStore",
      "outputs": [
        {
          "name": "newStoreName",
          "type": "string"
        },
        {
          "name": "storeOwner",
          "type": "address"
        }
      ],
      "payable": false,
      "stateMutability": "nonpayable",
      "type": "function"
    },
    {
      "constant": false,
      "inputs": [
        {
          "name": "storeId",
          "type": "uint256"
        },
        {
          "name": "name",
          "type": "string"
        },
        {
          "name": "price",
          "type": "uint256"
        },
        {
          "name": "description",
          "type": "string"
        },
        {
          "name": "inventory",
          "type": "uint256"
        }
      ],
      "name": "addProduct",
      "outputs": [
        {
          "name": "success",
          "type": "bool"
        }
      ],
      "payable": false,
      "stateMutability": "nonpayable",
      "type": "function"
    },
    {
      "constant": false,
      "inputs": [
        {
          "name": "storeId",
          "type": "uint256"
        },
        {
          "name": "sku",
          "type": "uint256"
        }
      ],
      "name": "removeProduct",
      "outputs": [
        {
          "name": "success",
          "type": "bool"
        }
      ],
      "payable": false,
      "stateMutability": "nonpayable",
      "type": "function"
    },
    {
      "constant": false,
      "inputs": [
        {
          "name": "storeId",
          "type": "uint256"
        },
        {
          "name": "sku",
          "type": "uint256"
        },
        {
          "name": "quantity",
          "type": "uint256"
        }
      ],
      "name": "buyProduct",
      "outputs": [
        {
          "name": "success",
          "type": "bool"
        }
      ],
      "payable": true,
      "stateMutability": "payable",
      "type": "function"
    },
    {
      "constant": false,
      "inputs": [
        {
          "name": "storeId",
          "type": "uint256"
        }
      ],
      "name": "withdrawFunds",
      "outputs": [
        {
          "name": "success",
          "type": "bool"
        }
      ],
      "payable": true,
      "stateMutability": "payable",
      "type": "function"
    },
    {
      "constant": false,
      "inputs": [
        {
          "name": "storeId",
          "type": "uint256"
        }
      ],
      "name": "fetchAllProductInfo",
      "outputs": [],
      "payable": false,
      "stateMutability": "nonpayable",
      "type": "function"
    },
    {
      "constant": true,
      "inputs": [
        {
          "name": "storeId",
          "type": "uint256"
        }
      ],
      "name": "fetchStoreInfo",
      "outputs": [
        {
          "name": "selectedStoreId",
          "type": "uint256"
        },
        {
          "name": "name",
          "type": "string"
        },
        {
          "name": "storeOwner",
          "type": "address"
        },
        {
          "name": "state",
          "type": "uint8"
        },
        {
          "name": "balance",
          "type": "uint256"
        },
        {
          "name": "nextProductSku",
          "type": "uint256"
        }
      ],
      "payable": false,
      "stateMutability": "view",
      "type": "function"
    },
    {
      "constant": false,
      "inputs": [],
      "name": "fetchAllStoreInfo",
      "outputs": [
        {
          "name": "success",
          "type": "bool"
        }
      ],
      "payable": false,
      "stateMutability": "nonpayable",
      "type": "function"
    },
    {
      "constant": false,
      "inputs": [
        {
          "name": "_address",
          "type": "address"
        }
      ],
      "name": "fetchStoreOwnerInfo",
      "outputs": [
        {
          "name": "name",
          "type": "string"
        }
      ],
      "payable": false,
      "stateMutability": "nonpayable",
      "type": "function"
    },
    {
      "constant": false,
      "inputs": [],
      "name": "fetchContractBalance",
      "outputs": [
        {
          "name": "balance",
          "type": "uint256"
        }
      ],
      "payable": false,
      "stateMutability": "nonpayable",
      "type": "function"
    },
    {
      "constant": true,
      "inputs": [],
      "name": "fetchContractOwner",
      "outputs": [
        {
          "name": "contractOwner",
          "type": "address"
        }
      ],
      "payable": false,
      "stateMutability": "view",
      "type": "function"
    },
    {
      "constant": false,
      "inputs": [
        {
          "name": "testNumber",
          "type": "uint256"
        }
      ],
      "name": "isAdmin",
      "outputs": [
        {
          "name": "_isAdmin",
          "type": "bool"
        }
      ],
      "payable": false,
      "stateMutability": "nonpayable",
      "type": "function"
    },
    {
      "constant": false,
      "inputs": [],
      "name": "isStoreOwner",
      "outputs": [
        {
          "name": "_storeOwnerState",
          "type": "uint8"
        }
      ],
      "payable": false,
      "stateMutability": "nonpayable",
      "type": "function"
    }
  ],
  "bytecode": "0x60806040526000600155670de0b6b3a76400006002556000600360006101000a81548160ff02191690831515021790555034801561003c57600080fd5b50336000806101000a81548173ffffffffffffffffffffffffffffffffffffffff021916908373ffffffffffffffffffffffffffffffffffffffff1602179055506001600460008060009054906101000a900473ffffffffffffffffffffffffffffffffffffffff1673ffffffffffffffffffffffffffffffffffffffff1673ffffffffffffffffffffffffffffffffffffffff16815260200190815260200160002060006101000a81548160ff0219169083151502179055506129a1806101056000396000f300608060405260043610610107576000357c0100000000000000000000000000000000000000000000000000000000900463ffffffff168063057cc2a11461010c5780630fc46fc9146101e4578063155dd5ee1461023b578063174c4652146102735780631bfc2113146102ac5780631edd091e146102d75780631f6dc437146103935780632510670e146103d85780632f68a48c146104a1578063429b62e5146105a45780635287d535146105ff578063649453871461064e578063662feffc146107335780637db48b4c1461084857806390fd105f14610877578063bdaf5487146108a2578063beff9577146108cf578063e8a59cd81461091b578063ec39214d14610a1e575b600080fd5b34801561011857600080fd5b5061014d600480360381019080803573ffffffffffffffffffffffffffffffffffffffff169060200190929190505050610a4d565b604051808060200184815260200183600181111561016757fe5b60ff168152602001828103825285818151815260200191508051906020019080838360005b838110156101a757808201518184015260208101905061018c565b50505050905090810190601f1680156101d45780820380516001836020036101000a031916815260200191505b5094505050505060405180910390f35b3480156101f057600080fd5b506101f9610b1c565b604051808273ffffffffffffffffffffffffffffffffffffffff1673ffffffffffffffffffffffffffffffffffffffff16815260200191505060405180910390f35b61025960048036038101908080359060200190929190505050610b45565b604051808215151515815260200191505060405180910390f35b34801561027f57600080fd5b50610288610dd2565b6040518082600181111561029857fe5b60ff16815260200191505060405180910390f35b3480156102b857600080fd5b506102c1610e29565b6040518082815260200191505060405180910390f35b3480156102e357600080fd5b50610318600480360381019080803573ffffffffffffffffffffffffffffffffffffffff169060200190929190505050610e2f565b6040518080602001828103825283818151815260200191508051906020019080838360005b8381101561035857808201518184015260208101905061033d565b50505050905090810190601f1680156103855780820380516001836020036101000a031916815260200191505b509250505060405180910390f35b34801561039f57600080fd5b506103be600480360381019080803590602001909291905050506110ff565b604051808215151515815260200191505060405180910390f35b3480156103e457600080fd5b5061045f600480360381019080803573ffffffffffffffffffffffffffffffffffffffff169060200190929190803590602001908201803590602001908080601f016020809104026020016040519081016040528093929190818152602001838380828437820191505050505050919291929050505061118c565b604051808273ffffffffffffffffffffffffffffffffffffffff1673ffffffffffffffffffffffffffffffffffffffff16815260200191505060405180910390f35b3480156104ad57600080fd5b506104cc600480360381019080803590602001909291905050506113cf565b60405180878152602001806020018673ffffffffffffffffffffffffffffffffffffffff1673ffffffffffffffffffffffffffffffffffffffff16815260200185600181111561051857fe5b60ff168152602001848152602001838152602001828103825287818151815260200191508051906020019080838360005b83811015610564578082015181840152602081019050610549565b50505050905090810190601f1680156105915780820380516001836020036101000a031916815260200191505b5097505050505050505060405180910390f35b3480156105b057600080fd5b506105e5600480360381019080803573ffffffffffffffffffffffffffffffffffffffff169060200190929190505050611540565b604051808215151515815260200191505060405180910390f35b34801561060b57600080fd5b506106346004803603810190808035906020019092919080359060200190929190505050611560565b604051808215151515815260200191505060405180910390f35b34801561065a57600080fd5b5061071960048036038101908080359060200190929190803590602001908201803590602001908080601f016020809104026020016040519081016040528093929190818152602001838380828437820191505050505050919291929080359060200190929190803590602001908201803590602001908080601f0160208091040260200160405190810160405280939291908181526020018383808284378201915050505050509192919290803590602001909291905050506117cd565b604051808215151515815260200191505060405180910390f35b34801561073f57600080fd5b5061079a600480360381019080803590602001908201803590602001908080601f0160208091040260200160405190810160405280939291908181526020018383808284378201915050505050509192919290505050611aad565b60405180806020018373ffffffffffffffffffffffffffffffffffffffff1673ffffffffffffffffffffffffffffffffffffffff168152602001828103825284818151815260200191508051906020019080838360005b8381101561080c5780820151818401526020810190506107f1565b50505050905090810190601f1680156108395780820380516001836020036101000a031916815260200191505b50935050505060405180910390f35b34801561085457600080fd5b5061085d611eb8565b604051808215151515815260200191505060405180910390f35b34801561088357600080fd5b5061088c611ecb565b6040518082815260200191505060405180910390f35b3480156108ae57600080fd5b506108cd60048036038101908080359060200190929190505050611eea565b005b61090160048036038101908080359060200190929190803590602001909291908035906020019092919050505061218d565b604051808215151515815260200191505060405180910390f35b34801561092757600080fd5b50610946600480360381019080803590602001909291905050506124b7565b60405180878152602001806020018673ffffffffffffffffffffffffffffffffffffffff1673ffffffffffffffffffffffffffffffffffffffff16815260200185600181111561099257fe5b60ff168152602001848152602001838152602001828103825287818151815260200191508051906020019080838360005b838110156109de5780820151818401526020810190506109c3565b50505050905090810190601f168015610a0b5780820380516001836020036101000a031916815260200191505b5097505050505050505060405180910390f35b348015610a2a57600080fd5b50610a336125b8565b604051808215151515815260200191505060405180910390f35b6005602052806000526040600020600091509050806000018054600181600116156101000203166002900480601f016020809104026020016040519081016040528092919081815260200182805460018160011615610100020316600290048015610af95780601f10610ace57610100808354040283529160200191610af9565b820191906000526020600020905b815481529060010190602001808311610adc57829003601f168201915b5050505050908060010154908060020160009054906101000a900460ff16905083565b60008060009054906101000a900473ffffffffffffffffffffffffffffffffffffffff16905090565b6000816006600082815260200190815260200160002060020160009054906101000a900473ffffffffffffffffffffffffffffffffffffffff1673ffffffffffffffffffffffffffffffffffffffff163373ffffffffffffffffffffffffffffffffffffffff16141515610c21576040517f08c379a00000000000000000000000000000000000000000000000000000000081526004018080602001828103825260198152602001807f596f7520646f206e6f74206f776e207468652073746f72652e0000000000000081525060200191505060405180910390fd5b600360009054906101000a900460ff16151515610ccc576040517f08c379a00000000000000000000000000000000000000000000000000000000081526004018080602001828103825260378152602001807f416e6f74686572207472616e7366657220697320696e2070726f636573732c2081526020017f706c656173652074727920616761696e206c617465722e00000000000000000081525060400191505060405180910390fd5b6001600360006101000a81548160ff0219169083151502179055503373ffffffffffffffffffffffffffffffffffffffff166108fc60066000868152602001908152602001600020600301549081150290604051600060405180830381858888f19350505050158015610d43573d6000803e3d6000fd5b507fc1b372cb0f5d1617f88a66256ff83ba7b9e43595dd372a9cb48c7344ba3fad5660066000858152602001908152602001600020600301546040518082815260200191505060405180910390a1600060066000858152602001908152602001600020600301819055506000600360006101000a81548160ff0219169083151502179055506001915050919050565b6000600560003373ffffffffffffffffffffffffffffffffffffffff1673ffffffffffffffffffffffffffffffffffffffff16815260200190815260200160002060020160009054906101000a900460ff16905090565b60025481565b606060007f31294df7ca63c4dd4826a2ddbb95a1014e949f901fac2a56e42dfc46d0e927db600560008573ffffffffffffffffffffffffffffffffffffffff1673ffffffffffffffffffffffffffffffffffffffff1681526020019081526020016000206000016040518080602001828103825283818154600181600116156101000203166002900481526020019150805460018160011615610100020316600290048015610f1f5780601f10610ef457610100808354040283529160200191610f1f565b820191906000526020600020905b815481529060010190602001808311610f0257829003601f168201915b50509250505060405180910390a1600090505b600560008473ffffffffffffffffffffffffffffffffffffffff1673ffffffffffffffffffffffffffffffffffffffff1681526020019081526020016000206003018054905081101561101c577f8fa9714928f2bf9dd8400ffbb4ecd5c483e40552043770c54a5394f896e58a89600560008573ffffffffffffffffffffffffffffffffffffffff1673ffffffffffffffffffffffffffffffffffffffff16815260200190815260200160002060030182815481101515610fef57fe5b90600052602060002001546040518082815260200191505060405180910390a18080600101915050610f32565b600560008473ffffffffffffffffffffffffffffffffffffffff1673ffffffffffffffffffffffffffffffffffffffff1681526020019081526020016000206000018054600181600116156101000203166002900480601f0160208091040260200160405190810160405280929190818152602001828054600181600116156101000203166002900480156110f25780601f106110c7576101008083540402835291602001916110f2565b820191906000526020600020905b8154815290600101906020018083116110d557829003601f168201915b5050505050915050919050565b60007f3b960eb128bbe3c552e5e1d483ea15dbd17315e2c8ff931b6b192489b1cf2c09826040518082815260200191505060405180910390a1600460003373ffffffffffffffffffffffffffffffffffffffff1673ffffffffffffffffffffffffffffffffffffffff16815260200190815260200160002060009054906101000a900460ff169050919050565b600060011515600460003373ffffffffffffffffffffffffffffffffffffffff1673ffffffffffffffffffffffffffffffffffffffff16815260200190815260200160002060009054906101000a900460ff161515141515611256576040517f08c379a00000000000000000000000000000000000000000000000000000000081526004018080602001828103825260158152602001807f596f7520617265206e6f7420616e2061646d696e2e000000000000000000000081525060200191505060405180910390fd5b6080604051908101604052808381526020016000815260200160018081111561127b57fe5b815260200160006040519080825280602002602001820160405280156112b05781602001602082028038833980820191505090505b50815250600560008573ffffffffffffffffffffffffffffffffffffffff1673ffffffffffffffffffffffffffffffffffffffff168152602001908152602001600020600082015181600001908051906020019061130f9291906127aa565b506020820151816001015560408201518160020160006101000a81548160ff0219169083600181111561133e57fe5b0217905550606082015181600301908051906020019061135f92919061282a565b509050507f46c2a6f51331f232c11118fc483f7ae9e777baf04d7cfd208de45faa56b3dd3e83604051808273ffffffffffffffffffffffffffffffffffffffff1673ffffffffffffffffffffffffffffffffffffffff16815260200191505060405180910390a182905092915050565b60006060600080600080600660008881526020019081526020016000206000015460066000898152602001908152602001600020600101600660008a815260200190815260200160002060020160009054906101000a900473ffffffffffffffffffffffffffffffffffffffff16600660008b815260200190815260200160002060020160149054906101000a900460ff16600660008c815260200190815260200160002060030154600660008d815260200190815260200160002060050154848054600181600116156101000203166002900480601f0160208091040260200160405190810160405280929190818152602001828054600181600116156101000203166002900480156115245780601f106114f957610100808354040283529160200191611524565b820191906000526020600020905b81548152906001019060200180831161150757829003601f168201915b5050505050945095509550955095509550955091939550919395565b60046020528060005260406000206000915054906101000a900460ff1681565b6000826006600082815260200190815260200160002060020160009054906101000a900473ffffffffffffffffffffffffffffffffffffffff1673ffffffffffffffffffffffffffffffffffffffff163373ffffffffffffffffffffffffffffffffffffffff1614151561163c576040517f08c379a00000000000000000000000000000000000000000000000000000000081526004018080602001828103825260198152602001807f596f7520646f206e6f74206f776e207468652073746f72652e0000000000000081525060200191505060405180910390fd5b6001151560066000868152602001908152602001600020600401600085815260200190815260200160002060050160009054906101000a900460ff161515141515611715576040517f08c379a00000000000000000000000000000000000000000000000000000000081526004018080602001828103825260288152602001807f596f7520646f206e6f74206861766520612070726f647563742077697468207481526020017f68617420534b552e00000000000000000000000000000000000000000000000081525060400191505060405180910390fd5b6006600085815260200190815260200160002060040160008481526020019081526020016000206000808201600090556001820160006117559190612877565b600282016000905560038201600061176d9190612877565b60048201600090556005820160006101000a81549060ff021916905550507f56108406462998bc1d1dab7e8b6da9d06843111352f8c5a4288e4af59dc9c9ba836040518082815260200191505060405180910390a1600191505092915050565b60008060006117da6128bf565b886006600082815260200190815260200160002060020160009054906101000a900473ffffffffffffffffffffffffffffffffffffffff1673ffffffffffffffffffffffffffffffffffffffff163373ffffffffffffffffffffffffffffffffffffffff161415156118b4576040517f08c379a00000000000000000000000000000000000000000000000000000000081526004018080602001828103825260198152602001807f596f7520646f206e6f74206f776e207468652073746f72652e0000000000000081525060200191505060405180910390fd5b600660008b81526020019081526020016000206005015493506002548802925060c0604051908101604052808581526020018a815260200184815260200188815260200187815260200160011515815250915081600660008c815260200190815260200160002060040160008681526020019081526020016000206000820151816000015560208201518160010190805190602001906119559291906127aa565b5060408201518160020155606082015181600301908051906020019061197c9291906127aa565b506080820151816004015560a08201518160050160006101000a81548160ff021916908315150217905550905050600660008b8152602001908152602001600020600501546001600660008d81526020019081526020016000206005015401111515611a76576040517f08c379a00000000000000000000000000000000000000000000000000000000081526004018080602001828103825260238152602001807f596f7520686176652072656163686564207468652070726f64756374206c696d81526020017f69742e000000000000000000000000000000000000000000000000000000000081525060400191505060405180910390fd5b600660008b815260200190815260200160002060050160008154809291906001019190505550600194505050505095945050505050565b60606000611ab96128f8565b600180811115611ac557fe5b600560003373ffffffffffffffffffffffffffffffffffffffff1673ffffffffffffffffffffffffffffffffffffffff16815260200190815260200160002060020160009054906101000a900460ff166001811115611b2057fe5b141515611bbb576040517f08c379a00000000000000000000000000000000000000000000000000000000081526004018080602001828103825260258152602001807f596f7520617265206e6f74206120726567697374657265642073746f7265206f81526020017f776e65722e00000000000000000000000000000000000000000000000000000081525060400191505060405180910390fd5b60c06040519081016040528060015481526020018581526020013373ffffffffffffffffffffffffffffffffffffffff168152602001600180811115611bfd57fe5b8152602001600081526020016000815250905080600660006001548152602001908152602001600020600082015181600001556020820151816001019080519060200190611c4c9291906127aa565b5060408201518160020160006101000a81548173ffffffffffffffffffffffffffffffffffffffff021916908373ffffffffffffffffffffffffffffffffffffffff16021790555060608201518160020160146101000a81548160ff02191690836001811115611cb857fe5b02179055506080820151816003015560a08201518160050155905050600560003373ffffffffffffffffffffffffffffffffffffffff1673ffffffffffffffffffffffffffffffffffffffff16815260200190815260200160002060030160015490806001815401808255809150509060018203906000526020600020016000909192909190915055506001546001805401111515611de5576040517f08c379a00000000000000000000000000000000000000000000000000000000081526004018080602001828103825260238152602001807f676c6f62616c53746f7265496420686173207265616368656420697473206c6981526020017f6d6974000000000000000000000000000000000000000000000000000000000081525060400191505060405180910390fd5b600160008154809291906001019190505550600660006001805403815260200190815260200160002060010133818054600181600116156101000203166002900480601f016020809104026020016040519081016040528092919081815260200182805460018160011615610100020316600290048015611ea75780601f10611e7c57610100808354040283529160200191611ea7565b820191906000526020600020905b815481529060010190602001808311611e8a57829003601f168201915b505050505091509250925050915091565b600360009054906101000a900460ff1681565b60003073ffffffffffffffffffffffffffffffffffffffff1631905090565b60008090505b6006600083815260200190815260200160002060050154811015612189577f101b713e946a23e6ec22a31fd8fc3ec7253754c5af24fdb6ac16dd53b56f045860066000848152602001908152602001600020600401600083815260200190815260200160002060000154600660008581526020019081526020016000206004016000848152602001908152602001600020600101600660008681526020019081526020016000206004016000858152602001908152602001600020600201546006600087815260200190815260200160002060040160008681526020019081526020016000206003016006600088815260200190815260200160002060040160008781526020019081526020016000206004015460066000898152602001908152602001600020600401600088815260200190815260200160002060050160009054906101000a900460ff16604051808781526020018060200186815260200180602001858152602001841515151581526020018381038352888181546001816001161561010002031660029004815260200191508054600181600116156101000203166002900480156120e55780601f106120ba576101008083540402835291602001916120e5565b820191906000526020600020905b8154815290600101906020018083116120c857829003601f168201915b50508381038252868181546001816001161561010002031660029004815260200191508054600181600116156101000203166002900480156121685780601f1061213d57610100808354040283529160200191612168565b820191906000526020600020905b81548152906001019060200180831161214b57829003601f168201915b50509850505050505050505060405180910390a18080600101915050611ef0565b5050565b600080600060066000878152602001908152602001600020600401600086815260200190815260200160002060020154915083820290507f8b929544acf50af2429000e4f990c5e67cfef3faec7070e650bbdad574c95124816040518082815260200191505060405180910390a18034141515612298576040517f08c379a00000000000000000000000000000000000000000000000000000000081526004018080602001828103825260278152602001807f596f75206e65656420746f2073656e6420657861637420616d6f756e7420726581526020017f7175697265642e0000000000000000000000000000000000000000000000000081525060400191505060405180910390fd5b600060066000888152602001908152602001600020600401600087815260200190815260200160002060040154111515612360576040517f08c379a000000000000000000000000000000000000000000000000000000000815260040180806020018281038252602a8152602001807f54686520726571756573742070726f6475637420686173206e6f206d6f72652081526020017f696e76656e746f72792e0000000000000000000000000000000000000000000081525060400191505060405180910390fd5b83600660008881526020019081526020016000206004016000878152602001908152602001600020600401540360066000888152602001908152602001600020600401600087815260200190815260200160002060040181905550600660008781526020019081526020016000206003015434600660008981526020019081526020016000206003015401111515612486576040517f08c379a00000000000000000000000000000000000000000000000000000000081526004018080602001828103825260278152602001807f596f752068617665207265616368656420746865206d61782062616c616e636581526020017f206c696d69742e0000000000000000000000000000000000000000000000000081525060400191505060405180910390fd5b3460066000888152602001908152602001600020600301600082825401925050819055506001925050509392505050565b6006602052806000526040600020600091509050806000015490806001018054600181600116156101000203166002900480601f0160208091040260200160405190810160405280929190818152602001828054600181600116156101000203166002900480156125695780601f1061253e57610100808354040283529160200191612569565b820191906000526020600020905b81548152906001019060200180831161254c57829003601f168201915b5050505050908060020160009054906101000a900473ffffffffffffffffffffffffffffffffffffffff16908060020160149054906101000a900460ff16908060030154908060050154905086565b600080600090505b6001548110156127a2577f20de00de16229a492f0497d9d642ac9645ab9b2e8df48a1ee2d063b86eae07006006600083815260200190815260200160002060000154600660008481526020019081526020016000206001016006600085815260200190815260200160002060020160009054906101000a900473ffffffffffffffffffffffffffffffffffffffff166006600086815260200190815260200160002060020160149054906101000a900460ff166006600087815260200190815260200160002060030154600660008881526020019081526020016000206005015460405180878152602001806020018673ffffffffffffffffffffffffffffffffffffffff1673ffffffffffffffffffffffffffffffffffffffff1681526020018560018111156126ed57fe5b60ff1681526020018481526020018381526020018281038252878181546001816001161561010002031660029004815260200191508054600181600116156101000203166002900480156127825780601f1061275757610100808354040283529160200191612782565b820191906000526020600020905b81548152906001019060200180831161276557829003601f168201915b505097505050505050505060405180910390a180806001019150506125c0565b600191505090565b828054600181600116156101000203166002900490600052602060002090601f016020900481019282601f106127eb57805160ff1916838001178555612819565b82800160010185558215612819579182015b828111156128185782518255916020019190600101906127fd565b5b5090506128269190612950565b5090565b828054828255906000526020600020908101928215612866579160200282015b8281111561286557825182559160200191906001019061284a565b5b5090506128739190612950565b5090565b50805460018160011615610100020316600290046000825580601f1061289d57506128bc565b601f0160209004906000526020600020908101906128bb9190612950565b5b50565b60c06040519081016040528060008152602001606081526020016000815260200160608152602001600081526020016000151581525090565b60c0604051908101604052806000815260200160608152602001600073ffffffffffffffffffffffffffffffffffffffff1681526020016000600181111561293c57fe5b815260200160008152602001600081525090565b61297291905b8082111561296e576000816000905550600101612956565b5090565b905600a165627a7a7230582032fde7cc233e38d19c492ca1abb82549f0199fc272e0141652bee9e683cc6a780029",
  "source": "pragma solidity ^0.4.23;\n\ncontract Marketplace {\n  address owner;\n  /// TODO: make admins private\n  uint globalStoreId = 0;\n  // uint256\n  uint public globalUnit = 1 ether;\n  // TODO: make globalLockBalances private. public during beta for testing\n  bool public globalLockBalances = false;\n  /// TODO: make storeId private \n  mapping (address => bool) public admins;\n  mapping (address => StoreOwner) public storeOwners;\n  mapping (uint => Store) public stores;\n\n  constructor() {\n    owner = msg.sender;\n    admins[owner] = true;\n  }\n  \n  // TODO: do you need store ownder address in StoreOwner struct? Already in mapping \n  struct StoreOwner {\n    string name;\n    // TODO: bit restriction on balance?\n    uint balance;\n    OwnerState state;\n    // TODO: cant return dynamic array so how will store owners how all the stores they own? Emit events.\n    uint[] storeIdsOwned;\n  }\n  \n  \n  enum OwnerState {Deactivated, Approved}\n  enum StoreState {Inactive, Active}\n\n  struct Store {\n    uint storeId;\n    string name;\n    address storeOwner;\n    StoreState state;\n    uint balance;\n    mapping (uint => Product) products;\n    uint nextProductSku;\n  }\n  struct Product {\n    uint sku;\n    string name;\n    uint price;\n    string description;\n    uint inventory;\n    bool active;\n    // TODO: add image via string and IPFS?\n  }\n  \n  /// modifiers for authorized access control\n  modifier onlyAdmin () {\n    require (admins[msg.sender] == true, \"You are not an admin.\");\n    _;\n  }\n  modifier onlyStoreOwners() {\n    require (storeOwners[msg.sender].state == OwnerState.Approved, \"You are not a registered store owner.\");\n    _;\n  }\n  modifier onlyOwnerOfStore(uint selectedStoreId) {\n    require (msg.sender == stores[selectedStoreId].storeOwner, \"You do not own the store.\");\n    _;\n  }\n  \n  /// Events\n  event AddedNewStoreOwner (address _address);\n  event AddProduct (uint skuAdded);\n  event RemoveProduct (uint skuRemoved);\n  event StoreIdOwned (uint storeIdOwned);\n  event StoreOwnerName (string storeOwnerName);\n  event StoreInfo (uint storeId, string name, address storeOwner, StoreState state, uint balance, uint nextProductSku);\n  event ProductInfo (uint sku, string name, uint price, string description, uint inventory, bool active);\n  event AmountRequired (uint amountRequired);\n  event WithdrewFunds (uint fundsWithdrawn);\n  event EventIsAdmin (uint number);\n  \n  function addStoreOwner(address _address, string _name) \n    onlyAdmin() \n    returns (address newStoreOwner) \n  {\n    storeOwners[_address] = StoreOwner({name: _name, balance: 0, state: OwnerState.Approved, storeIdsOwned: new uint[](0)});\n    emit AddedNewStoreOwner(_address);\n    return (_address);\n  }\n  \n  function addStore(string storeName) \n    public \n    onlyStoreOwners() \n    returns (string newStoreName, address storeOwner) \n    {\n      Store memory newStore = Store({\n        storeId: globalStoreId,\n        name: storeName,\n        storeOwner: msg.sender,\n        state: StoreState.Active,\n        nextProductSku: 0,\n        balance: 0\n      });\n    // record the new Store in stores mapping and storeOwners struct \n    stores[globalStoreId] = newStore;\n    // TODO: check globalStoreId array\n    storeOwners[msg.sender].storeIdsOwned.push(globalStoreId);\n    require(globalStoreId + 1 > globalStoreId, \"globalStoreId has reached its limit\");\n    globalStoreId++;\n    // check for storeId over integer \n    return (stores[globalStoreId - 1].name, msg.sender);\n  }\n  \n  function addProduct(uint storeId, string name, uint price, string description, uint inventory) \n  onlyOwnerOfStore(storeId) returns (bool success) {\n    uint nextSku = stores[storeId].nextProductSku;\n    // TODO: Add SafeMath library\n    uint productPrice = price * globalUnit;\n    Product memory newProduct = Product({\n      sku: nextSku,\n      name: name,\n      price: productPrice,\n      description: description,\n      inventory: inventory,\n      active: true\n    });\n    stores[storeId].products[nextSku] = newProduct;\n    // Prevent integer overflow.\n    // TODO: implement admin function or delegate call to expand product offering if over limit \n    require(stores[storeId].nextProductSku + 1 > stores[storeId].nextProductSku, \"You have reached the product limit.\");\n    stores[storeId].nextProductSku++;\n    return true;\n  }\n  \n  function removeProduct(uint storeId, uint sku)\n  onlyOwnerOfStore(storeId) returns (bool success) {\n    require(stores[storeId].products[sku].active == true, \"You do not have a product with that SKU.\");\n    delete stores[storeId].products[sku];\n    emit RemoveProduct(sku);\n    return true;\n  }\n  \n  function buyProduct(uint storeId, uint sku, uint quantity) payable returns (bool success) {\n    // TODO: think about if we want to only accept exact change or accept more and refund extra \n    uint price = stores[storeId].products[sku].price;\n    // TODO: integrate SafeMath library\n    uint requiredAmount = price * quantity;\n    emit AmountRequired(requiredAmount);\n    require(msg.value == requiredAmount, \"You need to send exact amount required.\");\n    require(stores[storeId].products[sku].inventory > 0, \"The request product has no more inventory.\");\n    stores[storeId].products[sku].inventory = stores[storeId].products[sku].inventory - quantity;\n    // TODO: check for integer overflow\n    require(stores[storeId].balance + msg.value > stores[storeId].balance, \"You have reached the max balance limit.\");\n    stores[storeId].balance += msg.value;\n    return true;\n  }\n  \n  // TODO: consider allowing owners to withdraw partial store balances\n  function withdrawFunds(uint storeId) onlyOwnerOfStore(storeId) payable returns (bool success) {\n    // Note: Implemented mutex security pattern\n    require(!globalLockBalances, \"Another transfer is in process, please try again later.\");\n    globalLockBalances = true;\n    (msg.sender).transfer(stores[storeId].balance);\n    emit WithdrewFunds(stores[storeId].balance);\n    stores[storeId].balance = 0;\n    globalLockBalances = false;\n    return true;\n  }\n  \n  /// Fetches for testing purposes\n  // TODO: limit to only store owner\n  function fetchAllProductInfo(uint storeId) {\n    for (uint i = 0; i < stores[storeId].nextProductSku; i++) {\n      emit ProductInfo(\n        stores[storeId].products[i].sku,\n        stores[storeId].products[i].name,\n        stores[storeId].products[i].price,\n        stores[storeId].products[i].description,\n        stores[storeId].products[i].inventory,\n        stores[storeId].products[i].active\n      );\n    }\n  }\n  \n  function fetchStoreInfo(uint storeId) public view returns (\n    uint selectedStoreId,\n    string name,\n    address storeOwner,\n    StoreState state,\n    uint balance,\n    uint nextProductSku\n  ) {\n    return (\n      stores[storeId].storeId,\n      stores[storeId].name,\n      stores[storeId].storeOwner,\n      stores[storeId].state,\n      stores[storeId].balance,\n      stores[storeId].nextProductSku\n    );\n  }\n  \n  function fetchAllStoreInfo() public returns (bool success) {\n    for(uint i = 0; i < globalStoreId; i++) {\n      emit StoreInfo(\n        stores[i].storeId,\n        stores[i].name,\n        stores[i].storeOwner,\n        stores[i].state,\n        stores[i].balance,\n        stores[i].nextProductSku);\n    }\n    return true;\n  }\n\n  function fetchStoreOwnerInfo(address _address) public returns (string name) {\n    // cannot return dynamic array so emitting events instead to show owners all storeIds owned\n    emit StoreOwnerName(storeOwners[_address].name);\n\n    for (uint i = 0; i < storeOwners[_address].storeIdsOwned.length; i++) {\n      emit StoreIdOwned(storeOwners[_address].storeIdsOwned[i]);\n    }\n    return (storeOwners[_address].name);\n  }\n  \n  function fetchContractBalance() public returns (uint balance) {\n    return this.balance;\n  }\n  \n  function fetchContractOwner() public view returns (address contractOwner) {\n    return owner;\n  }\n\n\n  function isAdmin(uint testNumber) public returns (bool _isAdmin) {\n    emit EventIsAdmin(testNumber);\n    return admins[msg.sender];\n  }\n  \n  function isStoreOwner() public returns (OwnerState _storeOwnerState) {\n    return storeOwners[msg.sender].state;\n  }\n}\n\n",
  "sourcePath": "/Users/Rocky/code/consensys/marketplace/marketplace/contracts/Marketplace.sol",
  "compiler": {
    "name": "solc",
    "version": "0.4.24+commit.e67f0147.Emscripten.clang"
  },
  "schemaVersion": "2.0.0",
  "updatedAt": "2018-08-10T02:22:38.678Z"
}