{
  "contractName": "Marketplace",
  "abi": [
    {
      "constant": true,
      "inputs": [
        {
          "name": "",
          "type": "address"
        }
      ],
      "name": "storeOwners",
      "outputs": [
        {
          "name": "name",
          "type": "string"
        },
        {
          "name": "balance",
          "type": "uint256"
        },
        {
          "name": "state",
          "type": "uint8"
        }
      ],
      "payable": false,
      "stateMutability": "view",
      "type": "function"
    },
    {
      "constant": true,
      "inputs": [],
      "name": "globalUnit",
      "outputs": [
        {
          "name": "",
          "type": "uint256"
        }
      ],
      "payable": false,
      "stateMutability": "view",
      "type": "function"
    },
    {
      "constant": true,
      "inputs": [
        {
          "name": "",
          "type": "address"
        }
      ],
      "name": "admins",
      "outputs": [
        {
          "name": "",
          "type": "bool"
        }
      ],
      "payable": false,
      "stateMutability": "view",
      "type": "function"
    },
    {
      "constant": true,
      "inputs": [],
      "name": "globalLockBalances",
      "outputs": [
        {
          "name": "",
          "type": "bool"
        }
      ],
      "payable": false,
      "stateMutability": "view",
      "type": "function"
    },
    {
      "constant": true,
      "inputs": [
        {
          "name": "",
          "type": "uint256"
        }
      ],
      "name": "stores",
      "outputs": [
        {
          "name": "storeId",
          "type": "uint256"
        },
        {
          "name": "name",
          "type": "string"
        },
        {
          "name": "storeOwner",
          "type": "address"
        },
        {
          "name": "state",
          "type": "uint8"
        },
        {
          "name": "balance",
          "type": "uint256"
        },
        {
          "name": "nextProductSku",
          "type": "uint256"
        }
      ],
      "payable": false,
      "stateMutability": "view",
      "type": "function"
    },
    {
      "inputs": [],
      "payable": false,
      "stateMutability": "nonpayable",
      "type": "constructor"
    },
    {
      "anonymous": false,
      "inputs": [
        {
          "indexed": false,
          "name": "_address",
          "type": "address"
        }
      ],
      "name": "AddedNewStoreOwner",
      "type": "event"
    },
    {
      "anonymous": false,
      "inputs": [
        {
          "indexed": false,
          "name": "skuAdded",
          "type": "uint256"
        }
      ],
      "name": "AddProduct",
      "type": "event"
    },
    {
      "anonymous": false,
      "inputs": [
        {
          "indexed": false,
          "name": "skuRemoved",
          "type": "uint256"
        }
      ],
      "name": "RemoveProduct",
      "type": "event"
    },
    {
      "anonymous": false,
      "inputs": [
        {
          "indexed": false,
          "name": "storeIdOwned",
          "type": "uint256"
        }
      ],
      "name": "StoreIdOwned",
      "type": "event"
    },
    {
      "anonymous": false,
      "inputs": [
        {
          "indexed": false,
          "name": "storeOwnerName",
          "type": "string"
        }
      ],
      "name": "StoreOwnerName",
      "type": "event"
    },
    {
      "anonymous": false,
      "inputs": [
        {
          "indexed": false,
          "name": "sku",
          "type": "uint256"
        },
        {
          "indexed": false,
          "name": "name",
          "type": "string"
        },
        {
          "indexed": false,
          "name": "price",
          "type": "uint256"
        },
        {
          "indexed": false,
          "name": "description",
          "type": "string"
        },
        {
          "indexed": false,
          "name": "inventory",
          "type": "uint256"
        },
        {
          "indexed": false,
          "name": "active",
          "type": "bool"
        }
      ],
      "name": "ProductInfo",
      "type": "event"
    },
    {
      "anonymous": false,
      "inputs": [
        {
          "indexed": false,
          "name": "amountRequired",
          "type": "uint256"
        }
      ],
      "name": "AmountRequired",
      "type": "event"
    },
    {
      "anonymous": false,
      "inputs": [
        {
          "indexed": false,
          "name": "fundsWithdrawn",
          "type": "uint256"
        }
      ],
      "name": "WithdrewFunds",
      "type": "event"
    },
    {
      "constant": false,
      "inputs": [
        {
          "name": "_address",
          "type": "address"
        },
        {
          "name": "_name",
          "type": "string"
        }
      ],
      "name": "addStoreOwner",
      "outputs": [
        {
          "name": "newStoreOwner",
          "type": "address"
        }
      ],
      "payable": false,
      "stateMutability": "nonpayable",
      "type": "function"
    },
    {
      "constant": false,
      "inputs": [
        {
          "name": "storeName",
          "type": "string"
        }
      ],
      "name": "addStore",
      "outputs": [
        {
          "name": "newStoreName",
          "type": "string"
        },
        {
          "name": "storeOwner",
          "type": "address"
        }
      ],
      "payable": false,
      "stateMutability": "nonpayable",
      "type": "function"
    },
    {
      "constant": false,
      "inputs": [
        {
          "name": "storeId",
          "type": "uint256"
        },
        {
          "name": "name",
          "type": "string"
        },
        {
          "name": "price",
          "type": "uint256"
        },
        {
          "name": "description",
          "type": "string"
        },
        {
          "name": "inventory",
          "type": "uint256"
        }
      ],
      "name": "addProduct",
      "outputs": [
        {
          "name": "success",
          "type": "bool"
        }
      ],
      "payable": false,
      "stateMutability": "nonpayable",
      "type": "function"
    },
    {
      "constant": false,
      "inputs": [
        {
          "name": "storeId",
          "type": "uint256"
        },
        {
          "name": "sku",
          "type": "uint256"
        }
      ],
      "name": "removeProduct",
      "outputs": [
        {
          "name": "success",
          "type": "bool"
        }
      ],
      "payable": false,
      "stateMutability": "nonpayable",
      "type": "function"
    },
    {
      "constant": false,
      "inputs": [
        {
          "name": "storeId",
          "type": "uint256"
        },
        {
          "name": "sku",
          "type": "uint256"
        },
        {
          "name": "quantity",
          "type": "uint256"
        }
      ],
      "name": "buyProduct",
      "outputs": [
        {
          "name": "success",
          "type": "bool"
        }
      ],
      "payable": true,
      "stateMutability": "payable",
      "type": "function"
    },
    {
      "constant": false,
      "inputs": [
        {
          "name": "storeId",
          "type": "uint256"
        }
      ],
      "name": "withdrawFunds",
      "outputs": [
        {
          "name": "success",
          "type": "bool"
        }
      ],
      "payable": true,
      "stateMutability": "payable",
      "type": "function"
    },
    {
      "constant": false,
      "inputs": [
        {
          "name": "storeId",
          "type": "uint256"
        }
      ],
      "name": "fetchAllProductInfo",
      "outputs": [],
      "payable": false,
      "stateMutability": "nonpayable",
      "type": "function"
    },
    {
      "constant": false,
      "inputs": [
        {
          "name": "storeId",
          "type": "uint256"
        }
      ],
      "name": "fetchStoreInfo",
      "outputs": [
        {
          "name": "selectedStoreId",
          "type": "uint256"
        },
        {
          "name": "name",
          "type": "string"
        },
        {
          "name": "storeOwner",
          "type": "address"
        },
        {
          "name": "state",
          "type": "uint8"
        },
        {
          "name": "balance",
          "type": "uint256"
        },
        {
          "name": "nextProductSku",
          "type": "uint256"
        }
      ],
      "payable": false,
      "stateMutability": "nonpayable",
      "type": "function"
    },
    {
      "constant": false,
      "inputs": [
        {
          "name": "_address",
          "type": "address"
        }
      ],
      "name": "fetchStoreOwnerInfo",
      "outputs": [
        {
          "name": "name",
          "type": "string"
        }
      ],
      "payable": false,
      "stateMutability": "nonpayable",
      "type": "function"
    },
    {
      "constant": false,
      "inputs": [],
      "name": "fetchContractBalance",
      "outputs": [
        {
          "name": "balance",
          "type": "uint256"
        }
      ],
      "payable": false,
      "stateMutability": "nonpayable",
      "type": "function"
    },
    {
      "constant": true,
      "inputs": [],
      "name": "fetchContractOwner",
      "outputs": [
        {
          "name": "contractOwner",
          "type": "address"
        }
      ],
      "payable": false,
      "stateMutability": "view",
      "type": "function"
    },
    {
      "constant": false,
      "inputs": [],
      "name": "isAdmin",
      "outputs": [
        {
          "name": "_isAdmin",
          "type": "bool"
        }
      ],
      "payable": false,
      "stateMutability": "nonpayable",
      "type": "function"
    },
    {
      "constant": false,
      "inputs": [],
      "name": "isStoreOwner",
      "outputs": [
        {
          "name": "_storeOwnerState",
          "type": "uint8"
        }
      ],
      "payable": false,
      "stateMutability": "nonpayable",
      "type": "function"
    }
  ],
  "bytecode": "0x60806040526000600155670de0b6b3a76400006002556000600360006101000a81548160ff02191690831515021790555034801561003c57600080fd5b50336000806101000a81548173ffffffffffffffffffffffffffffffffffffffff021916908373ffffffffffffffffffffffffffffffffffffffff1602179055506001600460008060009054906101000a900473ffffffffffffffffffffffffffffffffffffffff1673ffffffffffffffffffffffffffffffffffffffff1673ffffffffffffffffffffffffffffffffffffffff16815260200190815260200160002060006101000a81548160ff021916908315150217905550612726806101056000396000f3006080604052600436106100fc576000357c0100000000000000000000000000000000000000000000000000000000900463ffffffff168063057cc2a1146101015780630fc46fc9146101d9578063155dd5ee14610230578063174c4652146102685780631bfc2113146102a15780631edd091e146102cc5780632510670e146103885780632f68a48c14610451578063429b62e5146105545780635287d535146105af57806364945387146105fe578063662feffc146106e35780637db48b4c146107f857806390fd105f14610827578063b6db75a014610852578063bdaf548714610881578063beff9577146108ae578063e8a59cd8146108fa575b600080fd5b34801561010d57600080fd5b50610142600480360381019080803573ffffffffffffffffffffffffffffffffffffffff1690602001909291905050506109fd565b604051808060200184815260200183600181111561015c57fe5b60ff168152602001828103825285818151815260200191508051906020019080838360005b8381101561019c578082015181840152602081019050610181565b50505050905090810190601f1680156101c95780820380516001836020036101000a031916815260200191505b5094505050505060405180910390f35b3480156101e557600080fd5b506101ee610acc565b604051808273ffffffffffffffffffffffffffffffffffffffff1673ffffffffffffffffffffffffffffffffffffffff16815260200191505060405180910390f35b61024e60048036038101908080359060200190929190505050610af5565b604051808215151515815260200191505060405180910390f35b34801561027457600080fd5b5061027d610d82565b6040518082600181111561028d57fe5b60ff16815260200191505060405180910390f35b3480156102ad57600080fd5b506102b6610dd9565b6040518082815260200191505060405180910390f35b3480156102d857600080fd5b5061030d600480360381019080803573ffffffffffffffffffffffffffffffffffffffff169060200190929190505050610ddf565b6040518080602001828103825283818151815260200191508051906020019080838360005b8381101561034d578082015181840152602081019050610332565b50505050905090810190601f16801561037a5780820380516001836020036101000a031916815260200191505b509250505060405180910390f35b34801561039457600080fd5b5061040f600480360381019080803573ffffffffffffffffffffffffffffffffffffffff169060200190929190803590602001908201803590602001908080601f01602080910402602001604051908101604052809392919081815260200183838082843782019150505050505091929192905050506110af565b604051808273ffffffffffffffffffffffffffffffffffffffff1673ffffffffffffffffffffffffffffffffffffffff16815260200191505060405180910390f35b34801561045d57600080fd5b5061047c600480360381019080803590602001909291905050506112f2565b60405180878152602001806020018673ffffffffffffffffffffffffffffffffffffffff1673ffffffffffffffffffffffffffffffffffffffff1681526020018560018111156104c857fe5b60ff168152602001848152602001838152602001828103825287818151815260200191508051906020019080838360005b838110156105145780820151818401526020810190506104f9565b50505050905090810190601f1680156105415780820380516001836020036101000a031916815260200191505b5097505050505050505060405180910390f35b34801561056057600080fd5b50610595600480360381019080803573ffffffffffffffffffffffffffffffffffffffff169060200190929190505050611463565b604051808215151515815260200191505060405180910390f35b3480156105bb57600080fd5b506105e46004803603810190808035906020019092919080359060200190929190505050611483565b604051808215151515815260200191505060405180910390f35b34801561060a57600080fd5b506106c960048036038101908080359060200190929190803590602001908201803590602001908080601f016020809104026020016040519081016040528093929190818152602001838380828437820191505050505050919291929080359060200190929190803590602001908201803590602001908080601f0160208091040260200160405190810160405280939291908181526020018383808284378201915050505050509192919290803590602001909291905050506116f0565b604051808215151515815260200191505060405180910390f35b3480156106ef57600080fd5b5061074a600480360381019080803590602001908201803590602001908080601f01602080910402602001604051908101604052809392919081815260200183838082843782019150505050505091929192905050506119d0565b60405180806020018373ffffffffffffffffffffffffffffffffffffffff1673ffffffffffffffffffffffffffffffffffffffff168152602001828103825284818151815260200191508051906020019080838360005b838110156107bc5780820151818401526020810190506107a1565b50505050905090810190601f1680156107e95780820380516001836020036101000a031916815260200191505b50935050505060405180910390f35b34801561080457600080fd5b5061080d611ddb565b604051808215151515815260200191505060405180910390f35b34801561083357600080fd5b5061083c611dee565b6040518082815260200191505060405180910390f35b34801561085e57600080fd5b50610867611e0d565b604051808215151515815260200191505060405180910390f35b34801561088d57600080fd5b506108ac60048036038101908080359060200190929190505050611e61565b005b6108e0600480360381019080803590602001909291908035906020019092919080359060200190929190505050612104565b604051808215151515815260200191505060405180910390f35b34801561090657600080fd5b506109256004803603810190808035906020019092919050505061242e565b60405180878152602001806020018673ffffffffffffffffffffffffffffffffffffffff1673ffffffffffffffffffffffffffffffffffffffff16815260200185600181111561097157fe5b60ff168152602001848152602001838152602001828103825287818151815260200191508051906020019080838360005b838110156109bd5780820151818401526020810190506109a2565b50505050905090810190601f1680156109ea5780820380516001836020036101000a031916815260200191505b5097505050505050505060405180910390f35b6005602052806000526040600020600091509050806000018054600181600116156101000203166002900480601f016020809104026020016040519081016040528092919081815260200182805460018160011615610100020316600290048015610aa95780601f10610a7e57610100808354040283529160200191610aa9565b820191906000526020600020905b815481529060010190602001808311610a8c57829003601f168201915b5050505050908060010154908060020160009054906101000a900460ff16905083565b60008060009054906101000a900473ffffffffffffffffffffffffffffffffffffffff16905090565b6000816006600082815260200190815260200160002060020160009054906101000a900473ffffffffffffffffffffffffffffffffffffffff1673ffffffffffffffffffffffffffffffffffffffff163373ffffffffffffffffffffffffffffffffffffffff16141515610bd1576040517f08c379a00000000000000000000000000000000000000000000000000000000081526004018080602001828103825260198152602001807f596f7520646f206e6f74206f776e207468652073746f72652e0000000000000081525060200191505060405180910390fd5b600360009054906101000a900460ff16151515610c7c576040517f08c379a00000000000000000000000000000000000000000000000000000000081526004018080602001828103825260378152602001807f416e6f74686572207472616e7366657220697320696e2070726f636573732c2081526020017f706c656173652074727920616761696e206c617465722e00000000000000000081525060400191505060405180910390fd5b6001600360006101000a81548160ff0219169083151502179055503373ffffffffffffffffffffffffffffffffffffffff166108fc60066000868152602001908152602001600020600301549081150290604051600060405180830381858888f19350505050158015610cf3573d6000803e3d6000fd5b507fc1b372cb0f5d1617f88a66256ff83ba7b9e43595dd372a9cb48c7344ba3fad5660066000858152602001908152602001600020600301546040518082815260200191505060405180910390a1600060066000858152602001908152602001600020600301819055506000600360006101000a81548160ff0219169083151502179055506001915050919050565b6000600560003373ffffffffffffffffffffffffffffffffffffffff1673ffffffffffffffffffffffffffffffffffffffff16815260200190815260200160002060020160009054906101000a900460ff16905090565b60025481565b606060007f31294df7ca63c4dd4826a2ddbb95a1014e949f901fac2a56e42dfc46d0e927db600560008573ffffffffffffffffffffffffffffffffffffffff1673ffffffffffffffffffffffffffffffffffffffff1681526020019081526020016000206000016040518080602001828103825283818154600181600116156101000203166002900481526020019150805460018160011615610100020316600290048015610ecf5780601f10610ea457610100808354040283529160200191610ecf565b820191906000526020600020905b815481529060010190602001808311610eb257829003601f168201915b50509250505060405180910390a1600090505b600560008473ffffffffffffffffffffffffffffffffffffffff1673ffffffffffffffffffffffffffffffffffffffff16815260200190815260200160002060030180549050811015610fcc577f8fa9714928f2bf9dd8400ffbb4ecd5c483e40552043770c54a5394f896e58a89600560008573ffffffffffffffffffffffffffffffffffffffff1673ffffffffffffffffffffffffffffffffffffffff16815260200190815260200160002060030182815481101515610f9f57fe5b90600052602060002001546040518082815260200191505060405180910390a18080600101915050610ee2565b600560008473ffffffffffffffffffffffffffffffffffffffff1673ffffffffffffffffffffffffffffffffffffffff1681526020019081526020016000206000018054600181600116156101000203166002900480601f0160208091040260200160405190810160405280929190818152602001828054600181600116156101000203166002900480156110a25780601f10611077576101008083540402835291602001916110a2565b820191906000526020600020905b81548152906001019060200180831161108557829003601f168201915b5050505050915050919050565b600060011515600460003373ffffffffffffffffffffffffffffffffffffffff1673ffffffffffffffffffffffffffffffffffffffff16815260200190815260200160002060009054906101000a900460ff161515141515611179576040517f08c379a00000000000000000000000000000000000000000000000000000000081526004018080602001828103825260158152602001807f596f7520617265206e6f7420616e2061646d696e2e000000000000000000000081525060200191505060405180910390fd5b6080604051908101604052808381526020016000815260200160018081111561119e57fe5b815260200160006040519080825280602002602001820160405280156111d35781602001602082028038833980820191505090505b50815250600560008573ffffffffffffffffffffffffffffffffffffffff1673ffffffffffffffffffffffffffffffffffffffff168152602001908152602001600020600082015181600001908051906020019061123292919061252f565b506020820151816001015560408201518160020160006101000a81548160ff0219169083600181111561126157fe5b021790555060608201518160030190805190602001906112829291906125af565b509050507f46c2a6f51331f232c11118fc483f7ae9e777baf04d7cfd208de45faa56b3dd3e83604051808273ffffffffffffffffffffffffffffffffffffffff1673ffffffffffffffffffffffffffffffffffffffff16815260200191505060405180910390a182905092915050565b60006060600080600080600660008881526020019081526020016000206000015460066000898152602001908152602001600020600101600660008a815260200190815260200160002060020160009054906101000a900473ffffffffffffffffffffffffffffffffffffffff16600660008b815260200190815260200160002060020160149054906101000a900460ff16600660008c815260200190815260200160002060030154600660008d815260200190815260200160002060050154848054600181600116156101000203166002900480601f0160208091040260200160405190810160405280929190818152602001828054600181600116156101000203166002900480156114475780601f1061141c57610100808354040283529160200191611447565b820191906000526020600020905b81548152906001019060200180831161142a57829003601f168201915b5050505050945095509550955095509550955091939550919395565b60046020528060005260406000206000915054906101000a900460ff1681565b6000826006600082815260200190815260200160002060020160009054906101000a900473ffffffffffffffffffffffffffffffffffffffff1673ffffffffffffffffffffffffffffffffffffffff163373ffffffffffffffffffffffffffffffffffffffff1614151561155f576040517f08c379a00000000000000000000000000000000000000000000000000000000081526004018080602001828103825260198152602001807f596f7520646f206e6f74206f776e207468652073746f72652e0000000000000081525060200191505060405180910390fd5b6001151560066000868152602001908152602001600020600401600085815260200190815260200160002060050160009054906101000a900460ff161515141515611638576040517f08c379a00000000000000000000000000000000000000000000000000000000081526004018080602001828103825260288152602001807f596f7520646f206e6f74206861766520612070726f647563742077697468207481526020017f68617420534b552e00000000000000000000000000000000000000000000000081525060400191505060405180910390fd5b60066000858152602001908152602001600020600401600084815260200190815260200160002060008082016000905560018201600061167891906125fc565b600282016000905560038201600061169091906125fc565b60048201600090556005820160006101000a81549060ff021916905550507f56108406462998bc1d1dab7e8b6da9d06843111352f8c5a4288e4af59dc9c9ba836040518082815260200191505060405180910390a1600191505092915050565b60008060006116fd612644565b886006600082815260200190815260200160002060020160009054906101000a900473ffffffffffffffffffffffffffffffffffffffff1673ffffffffffffffffffffffffffffffffffffffff163373ffffffffffffffffffffffffffffffffffffffff161415156117d7576040517f08c379a00000000000000000000000000000000000000000000000000000000081526004018080602001828103825260198152602001807f596f7520646f206e6f74206f776e207468652073746f72652e0000000000000081525060200191505060405180910390fd5b600660008b81526020019081526020016000206005015493506002548802925060c0604051908101604052808581526020018a815260200184815260200188815260200187815260200160011515815250915081600660008c8152602001908152602001600020600401600086815260200190815260200160002060008201518160000155602082015181600101908051906020019061187892919061252f565b5060408201518160020155606082015181600301908051906020019061189f92919061252f565b506080820151816004015560a08201518160050160006101000a81548160ff021916908315150217905550905050600660008b8152602001908152602001600020600501546001600660008d81526020019081526020016000206005015401111515611999576040517f08c379a00000000000000000000000000000000000000000000000000000000081526004018080602001828103825260238152602001807f596f7520686176652072656163686564207468652070726f64756374206c696d81526020017f69742e000000000000000000000000000000000000000000000000000000000081525060400191505060405180910390fd5b600660008b815260200190815260200160002060050160008154809291906001019190505550600194505050505095945050505050565b606060006119dc61267d565b6001808111156119e857fe5b600560003373ffffffffffffffffffffffffffffffffffffffff1673ffffffffffffffffffffffffffffffffffffffff16815260200190815260200160002060020160009054906101000a900460ff166001811115611a4357fe5b141515611ade576040517f08c379a00000000000000000000000000000000000000000000000000000000081526004018080602001828103825260258152602001807f596f7520617265206e6f74206120726567697374657265642073746f7265206f81526020017f776e65722e00000000000000000000000000000000000000000000000000000081525060400191505060405180910390fd5b60c06040519081016040528060015481526020018581526020013373ffffffffffffffffffffffffffffffffffffffff168152602001600180811115611b2057fe5b8152602001600081526020016000815250905080600660006001548152602001908152602001600020600082015181600001556020820151816001019080519060200190611b6f92919061252f565b5060408201518160020160006101000a81548173ffffffffffffffffffffffffffffffffffffffff021916908373ffffffffffffffffffffffffffffffffffffffff16021790555060608201518160020160146101000a81548160ff02191690836001811115611bdb57fe5b02179055506080820151816003015560a08201518160050155905050600560003373ffffffffffffffffffffffffffffffffffffffff1673ffffffffffffffffffffffffffffffffffffffff16815260200190815260200160002060030160015490806001815401808255809150509060018203906000526020600020016000909192909190915055506001546001805401111515611d08576040517f08c379a00000000000000000000000000000000000000000000000000000000081526004018080602001828103825260238152602001807f676c6f62616c53746f7265496420686173207265616368656420697473206c6981526020017f6d6974000000000000000000000000000000000000000000000000000000000081525060400191505060405180910390fd5b600160008154809291906001019190505550600660006001805403815260200190815260200160002060010133818054600181600116156101000203166002900480601f016020809104026020016040519081016040528092919081815260200182805460018160011615610100020316600290048015611dca5780601f10611d9f57610100808354040283529160200191611dca565b820191906000526020600020905b815481529060010190602001808311611dad57829003601f168201915b505050505091509250925050915091565b600360009054906101000a900460ff1681565b60003073ffffffffffffffffffffffffffffffffffffffff1631905090565b6000600460003373ffffffffffffffffffffffffffffffffffffffff1673ffffffffffffffffffffffffffffffffffffffff16815260200190815260200160002060009054906101000a900460ff16905090565b60008090505b6006600083815260200190815260200160002060050154811015612100577f101b713e946a23e6ec22a31fd8fc3ec7253754c5af24fdb6ac16dd53b56f045860066000848152602001908152602001600020600401600083815260200190815260200160002060000154600660008581526020019081526020016000206004016000848152602001908152602001600020600101600660008681526020019081526020016000206004016000858152602001908152602001600020600201546006600087815260200190815260200160002060040160008681526020019081526020016000206003016006600088815260200190815260200160002060040160008781526020019081526020016000206004015460066000898152602001908152602001600020600401600088815260200190815260200160002060050160009054906101000a900460ff166040518087815260200180602001868152602001806020018581526020018415151515815260200183810383528881815460018160011615610100020316600290048152602001915080546001816001161561010002031660029004801561205c5780601f106120315761010080835404028352916020019161205c565b820191906000526020600020905b81548152906001019060200180831161203f57829003601f168201915b50508381038252868181546001816001161561010002031660029004815260200191508054600181600116156101000203166002900480156120df5780601f106120b4576101008083540402835291602001916120df565b820191906000526020600020905b8154815290600101906020018083116120c257829003601f168201915b50509850505050505050505060405180910390a18080600101915050611e67565b5050565b600080600060066000878152602001908152602001600020600401600086815260200190815260200160002060020154915083820290507f8b929544acf50af2429000e4f990c5e67cfef3faec7070e650bbdad574c95124816040518082815260200191505060405180910390a1803414151561220f576040517f08c379a00000000000000000000000000000000000000000000000000000000081526004018080602001828103825260278152602001807f596f75206e65656420746f2073656e6420657861637420616d6f756e7420726581526020017f7175697265642e0000000000000000000000000000000000000000000000000081525060400191505060405180910390fd5b6000600660008881526020019081526020016000206004016000878152602001908152602001600020600401541115156122d7576040517f08c379a000000000000000000000000000000000000000000000000000000000815260040180806020018281038252602a8152602001807f54686520726571756573742070726f6475637420686173206e6f206d6f72652081526020017f696e76656e746f72792e0000000000000000000000000000000000000000000081525060400191505060405180910390fd5b836006600088815260200190815260200160002060040160008781526020019081526020016000206004015403600660008881526020019081526020016000206004016000878152602001908152602001600020600401819055506006600087815260200190815260200160002060030154346006600089815260200190815260200160002060030154011115156123fd576040517f08c379a00000000000000000000000000000000000000000000000000000000081526004018080602001828103825260278152602001807f596f752068617665207265616368656420746865206d61782062616c616e636581526020017f206c696d69742e0000000000000000000000000000000000000000000000000081525060400191505060405180910390fd5b3460066000888152602001908152602001600020600301600082825401925050819055506001925050509392505050565b6006602052806000526040600020600091509050806000015490806001018054600181600116156101000203166002900480601f0160208091040260200160405190810160405280929190818152602001828054600181600116156101000203166002900480156124e05780601f106124b5576101008083540402835291602001916124e0565b820191906000526020600020905b8154815290600101906020018083116124c357829003601f168201915b5050505050908060020160009054906101000a900473ffffffffffffffffffffffffffffffffffffffff16908060020160149054906101000a900460ff16908060030154908060050154905086565b828054600181600116156101000203166002900490600052602060002090601f016020900481019282601f1061257057805160ff191683800117855561259e565b8280016001018555821561259e579182015b8281111561259d578251825591602001919060010190612582565b5b5090506125ab91906126d5565b5090565b8280548282559060005260206000209081019282156125eb579160200282015b828111156125ea5782518255916020019190600101906125cf565b5b5090506125f891906126d5565b5090565b50805460018160011615610100020316600290046000825580601f106126225750612641565b601f01602090049060005260206000209081019061264091906126d5565b5b50565b60c06040519081016040528060008152602001606081526020016000815260200160608152602001600081526020016000151581525090565b60c0604051908101604052806000815260200160608152602001600073ffffffffffffffffffffffffffffffffffffffff168152602001600060018111156126c157fe5b815260200160008152602001600081525090565b6126f791905b808211156126f35760008160009055506001016126db565b5090565b905600a165627a7a72305820abb5fe7b357dd3bf728b2b28795f6b57d8e281ab55c537b99000dbfb2a9457b10029",
  "source": "pragma solidity ^0.4.23;\n\ncontract Marketplace {\n  address owner;\n  /// TODO: make admins private\n  uint globalStoreId = 0;\n  // uint256\n  uint public globalUnit = 1 ether;\n  // TODO: make globalLockBalances private. public during beta for testing\n  bool public globalLockBalances = false;\n  /// TODO: make storeId private \n  mapping (address => bool) public admins;\n  mapping (address => StoreOwner) public storeOwners;\n  mapping (uint => Store) public stores;\n\n  constructor() {\n    owner = msg.sender;\n    admins[owner] = true;\n  }\n  \n  // TODO: do you need store ownder address in StoreOwner struct? Already in mapping \n  struct StoreOwner {\n    string name;\n    // TODO: bit restriction on balance?\n    uint balance;\n    OwnerState state;\n    // TODO: cant return dynamic array so how will store owners how all the stores they own? Emit events.\n    uint[] storeIdsOwned;\n  }\n  \n  \n  enum OwnerState {Deactivated, Approved}\n  enum StoreState {Inactive, Active}\n\n  struct Store {\n    uint storeId;\n    string name;\n    address storeOwner;\n    StoreState state;\n    uint balance;\n    mapping (uint => Product) products;\n    uint nextProductSku;\n  }\n  struct Product {\n    uint sku;\n    string name;\n    uint price;\n    string description;\n    uint inventory;\n    bool active;\n    // TODO: add image via string and IPFS?\n  }\n  \n  /// modifiers for authorized access control\n  modifier onlyAdmin () {\n    require (admins[msg.sender] == true, \"You are not an admin.\");\n    _;\n  }\n  modifier onlyStoreOwners() {\n    require (storeOwners[msg.sender].state == OwnerState.Approved, \"You are not a registered store owner.\");\n    _;\n  }\n  modifier onlyOwnerOfStore(uint selectedStoreId) {\n    require (msg.sender == stores[selectedStoreId].storeOwner, \"You do not own the store.\");\n    _;\n  }\n  \n  /// Events\n  event AddedNewStoreOwner (address _address);\n  event AddProduct (uint skuAdded);\n  event RemoveProduct (uint skuRemoved);\n  event StoreIdOwned (uint storeIdOwned);\n  event StoreOwnerName (string storeOwnerName);\n  event ProductInfo (uint sku, string name, uint price, string description, uint inventory, bool active);\n  event AmountRequired (uint amountRequired);\n  event WithdrewFunds (uint fundsWithdrawn);\n  \n  function addStoreOwner(\n    address _address, \n    string _name) \n    onlyAdmin() \n    returns (address newStoreOwner) \n  {\n    storeOwners[_address] = StoreOwner({name: _name, balance: 0, state: OwnerState.Approved, storeIdsOwned: new uint[](0)});\n    emit AddedNewStoreOwner(_address);\n    return (_address);\n  }\n  \n  function addStore(string storeName) onlyStoreOwners() returns (string newStoreName, address storeOwner) {\n    Store memory newStore = Store({\n                storeId: globalStoreId,\n                name: storeName, \n                storeOwner: msg.sender, \n                state: StoreState.Active,\n                nextProductSku: 0,\n                balance: 0\n                });\n    // record the new Store in stores mapping and storeOwners struct \n    stores[globalStoreId] = newStore;\n    // TODO: check globalStoreId array\n    storeOwners[msg.sender].storeIdsOwned.push(globalStoreId);\n    require(globalStoreId + 1 > globalStoreId, \"globalStoreId has reached its limit\");\n    globalStoreId++;\n    // check for storeId over integer \n    return (stores[globalStoreId - 1].name, msg.sender);\n  }\n  \n  function addProduct(uint storeId, string name, uint price, string description, uint inventory) \n  onlyOwnerOfStore(storeId) returns (bool success) {\n    uint nextSku = stores[storeId].nextProductSku;\n    // TODO: Add SafeMath library\n    uint productPrice = price * globalUnit;\n    Product memory newProduct = Product({\n      sku: nextSku,\n      name: name,\n      price: productPrice,\n      description: description,\n      inventory: inventory,\n      active: true\n    });\n    stores[storeId].products[nextSku] = newProduct;\n    // Prevent integer overflow.\n    // TODO: implement admin function or delegate call to expand product offering if over limit \n    require(stores[storeId].nextProductSku + 1 > stores[storeId].nextProductSku, \"You have reached the product limit.\");\n    stores[storeId].nextProductSku++;\n    return true;\n  }\n  \n  function removeProduct(uint storeId, uint sku)\n  onlyOwnerOfStore(storeId) returns (bool success) {\n    require(stores[storeId].products[sku].active == true, \"You do not have a product with that SKU.\");\n    delete stores[storeId].products[sku];\n    emit RemoveProduct(sku);\n    return true;\n  }\n  \n  function buyProduct(uint storeId, uint sku, uint quantity) payable returns (bool success) {\n    // TODO: think about if we want to only accept exact change or accept more and refund extra \n    uint price = stores[storeId].products[sku].price;\n    // TODO: integrate SafeMath library\n    uint requiredAmount = price * quantity;\n    emit AmountRequired(requiredAmount);\n    require(msg.value == requiredAmount, \"You need to send exact amount required.\");\n    require(stores[storeId].products[sku].inventory > 0, \"The request product has no more inventory.\");\n    stores[storeId].products[sku].inventory = stores[storeId].products[sku].inventory - quantity;\n    // TODO: check for integer overflow\n    require(stores[storeId].balance + msg.value > stores[storeId].balance, \"You have reached the max balance limit.\");\n    stores[storeId].balance += msg.value;\n    return true;\n  }\n  \n  // TODO: consider allowing owners to withdraw partial store balances\n  function withdrawFunds(uint storeId) onlyOwnerOfStore(storeId) payable returns (bool success) {\n    // Note: Implemented mutex security pattern\n    require(!globalLockBalances, \"Another transfer is in process, please try again later.\");\n    globalLockBalances = true;\n    (msg.sender).transfer(stores[storeId].balance);\n    emit WithdrewFunds(stores[storeId].balance);\n    stores[storeId].balance = 0;\n    globalLockBalances = false;\n    return true;\n  }\n  \n  /// Fetches for testing purposes\n  // TODO: limit to only store owner\n  function fetchAllProductInfo(uint storeId) {\n    for (uint i = 0; i < stores[storeId].nextProductSku; i++) {\n      emit ProductInfo(\n        stores[storeId].products[i].sku,\n        stores[storeId].products[i].name,\n        stores[storeId].products[i].price,\n        stores[storeId].products[i].description,\n        stores[storeId].products[i].inventory,\n        stores[storeId].products[i].active\n      );\n    }\n  }\n  \n  function fetchStoreInfo(uint storeId) returns (\n    uint selectedStoreId,\n    string name,\n    address storeOwner,\n    StoreState state,\n    uint balance,\n    uint nextProductSku\n  ) {\n    return (\n      stores[storeId].storeId,\n      stores[storeId].name,\n      stores[storeId].storeOwner,\n      stores[storeId].state,\n      stores[storeId].balance,\n      stores[storeId].nextProductSku\n    );\n  }\n  \n  function fetchStoreOwnerInfo(address _address) public returns (string name) {\n    // cannot return dynamic array so emitting events instead to show owners all storeIds owned\n    emit StoreOwnerName(storeOwners[_address].name);\n\n    for (uint i = 0; i < storeOwners[_address].storeIdsOwned.length; i++) {\n      emit StoreIdOwned(storeOwners[_address].storeIdsOwned[i]);\n    }\n    return (storeOwners[_address].name);\n  }\n  \n  function fetchContractBalance() public returns (uint balance) {\n    return this.balance;\n  }\n  \n  function fetchContractOwner() public view returns (address contractOwner) {\n    return owner;\n  }\n\n\n  function isAdmin() public returns (bool _isAdmin) {\n    return admins[msg.sender];\n  }\n  \n  function isStoreOwner() public returns (OwnerState _storeOwnerState) {\n    return storeOwners[msg.sender].state;\n  }\n}\n\n",
  "sourcePath": "/Users/Rocky/code/consensys/petshop/contracts/Marketplace.sol",
  "compiler": {
    "name": "solc",
    "version": "0.4.24+commit.e67f0147.Emscripten.clang"
  },
  "schemaVersion": "2.0.0",
  "updatedAt": "2018-08-09T23:18:47.521Z"
}