{
  "contractName": "Marketplace",
  "abi": [
    {
      "constant": true,
      "inputs": [
        {
          "name": "",
          "type": "address"
        }
      ],
      "name": "storeOwners",
      "outputs": [
        {
          "name": "name",
          "type": "string"
        },
        {
          "name": "balance",
          "type": "uint256"
        },
        {
          "name": "state",
          "type": "uint8"
        }
      ],
      "payable": false,
      "stateMutability": "view",
      "type": "function"
    },
    {
      "constant": true,
      "inputs": [],
      "name": "globalUnit",
      "outputs": [
        {
          "name": "",
          "type": "uint256"
        }
      ],
      "payable": false,
      "stateMutability": "view",
      "type": "function"
    },
    {
      "constant": true,
      "inputs": [
        {
          "name": "",
          "type": "address"
        }
      ],
      "name": "admins",
      "outputs": [
        {
          "name": "",
          "type": "bool"
        }
      ],
      "payable": false,
      "stateMutability": "view",
      "type": "function"
    },
    {
      "constant": true,
      "inputs": [],
      "name": "globalLockBalances",
      "outputs": [
        {
          "name": "",
          "type": "bool"
        }
      ],
      "payable": false,
      "stateMutability": "view",
      "type": "function"
    },
    {
      "constant": true,
      "inputs": [
        {
          "name": "",
          "type": "uint256"
        }
      ],
      "name": "stores",
      "outputs": [
        {
          "name": "storeId",
          "type": "uint256"
        },
        {
          "name": "name",
          "type": "string"
        },
        {
          "name": "storeOwner",
          "type": "address"
        },
        {
          "name": "state",
          "type": "uint8"
        },
        {
          "name": "balance",
          "type": "uint256"
        },
        {
          "name": "nextProductSku",
          "type": "uint256"
        }
      ],
      "payable": false,
      "stateMutability": "view",
      "type": "function"
    },
    {
      "inputs": [],
      "payable": false,
      "stateMutability": "nonpayable",
      "type": "constructor"
    },
    {
      "anonymous": false,
      "inputs": [
        {
          "indexed": false,
          "name": "_address",
          "type": "address"
        }
      ],
      "name": "AddedNewStoreOwner",
      "type": "event"
    },
    {
      "anonymous": false,
      "inputs": [
        {
          "indexed": false,
          "name": "skuAdded",
          "type": "uint256"
        }
      ],
      "name": "AddProduct",
      "type": "event"
    },
    {
      "anonymous": false,
      "inputs": [
        {
          "indexed": false,
          "name": "skuRemoved",
          "type": "uint256"
        }
      ],
      "name": "RemoveProduct",
      "type": "event"
    },
    {
      "anonymous": false,
      "inputs": [
        {
          "indexed": false,
          "name": "storeIdOwned",
          "type": "uint256"
        }
      ],
      "name": "StoreIdOwned",
      "type": "event"
    },
    {
      "anonymous": false,
      "inputs": [
        {
          "indexed": false,
          "name": "storeOwnerName",
          "type": "string"
        }
      ],
      "name": "StoreOwnerName",
      "type": "event"
    },
    {
      "anonymous": false,
      "inputs": [
        {
          "indexed": false,
          "name": "storeId",
          "type": "uint256"
        },
        {
          "indexed": false,
          "name": "name",
          "type": "string"
        },
        {
          "indexed": false,
          "name": "storeOwner",
          "type": "address"
        },
        {
          "indexed": false,
          "name": "state",
          "type": "uint8"
        },
        {
          "indexed": false,
          "name": "balance",
          "type": "uint256"
        },
        {
          "indexed": false,
          "name": "nextProductSku",
          "type": "uint256"
        }
      ],
      "name": "StoreInfo",
      "type": "event"
    },
    {
      "anonymous": false,
      "inputs": [
        {
          "indexed": false,
          "name": "sku",
          "type": "uint256"
        },
        {
          "indexed": false,
          "name": "name",
          "type": "string"
        },
        {
          "indexed": false,
          "name": "price",
          "type": "uint256"
        },
        {
          "indexed": false,
          "name": "description",
          "type": "string"
        },
        {
          "indexed": false,
          "name": "inventory",
          "type": "uint256"
        },
        {
          "indexed": false,
          "name": "active",
          "type": "bool"
        }
      ],
      "name": "ProductInfo",
      "type": "event"
    },
    {
      "anonymous": false,
      "inputs": [
        {
          "indexed": false,
          "name": "amountRequired",
          "type": "uint256"
        }
      ],
      "name": "AmountRequired",
      "type": "event"
    },
    {
      "anonymous": false,
      "inputs": [
        {
          "indexed": false,
          "name": "fundsWithdrawn",
          "type": "uint256"
        }
      ],
      "name": "WithdrewFunds",
      "type": "event"
    },
    {
      "anonymous": false,
      "inputs": [
        {
          "indexed": false,
          "name": "isAdmin",
          "type": "bool"
        }
      ],
      "name": "EventIsAdmin",
      "type": "event"
    },
    {
      "anonymous": false,
      "inputs": [
        {
          "indexed": false,
          "name": "_ownerState",
          "type": "uint8"
        }
      ],
      "name": "EventIsStoreOwner",
      "type": "event"
    },
    {
      "constant": false,
      "inputs": [],
      "name": "giveFreeMoney",
      "outputs": [
        {
          "name": "success",
          "type": "bool"
        }
      ],
      "payable": true,
      "stateMutability": "payable",
      "type": "function"
    },
    {
      "constant": false,
      "inputs": [
        {
          "name": "_address",
          "type": "address"
        },
        {
          "name": "_name",
          "type": "string"
        }
      ],
      "name": "addStoreOwner",
      "outputs": [
        {
          "name": "newStoreOwner",
          "type": "address"
        }
      ],
      "payable": false,
      "stateMutability": "nonpayable",
      "type": "function"
    },
    {
      "constant": false,
      "inputs": [
        {
          "name": "storeName",
          "type": "string"
        }
      ],
      "name": "addStore",
      "outputs": [
        {
          "name": "newStoreName",
          "type": "string"
        },
        {
          "name": "storeOwner",
          "type": "address"
        }
      ],
      "payable": false,
      "stateMutability": "nonpayable",
      "type": "function"
    },
    {
      "constant": false,
      "inputs": [
        {
          "name": "storeId",
          "type": "uint256"
        },
        {
          "name": "name",
          "type": "string"
        },
        {
          "name": "price",
          "type": "uint256"
        },
        {
          "name": "description",
          "type": "string"
        },
        {
          "name": "inventory",
          "type": "uint256"
        }
      ],
      "name": "addProduct",
      "outputs": [
        {
          "name": "success",
          "type": "bool"
        }
      ],
      "payable": false,
      "stateMutability": "nonpayable",
      "type": "function"
    },
    {
      "constant": false,
      "inputs": [
        {
          "name": "storeId",
          "type": "uint256"
        },
        {
          "name": "sku",
          "type": "uint256"
        }
      ],
      "name": "removeProduct",
      "outputs": [
        {
          "name": "success",
          "type": "bool"
        }
      ],
      "payable": false,
      "stateMutability": "nonpayable",
      "type": "function"
    },
    {
      "constant": false,
      "inputs": [
        {
          "name": "storeId",
          "type": "uint256"
        },
        {
          "name": "sku",
          "type": "uint256"
        },
        {
          "name": "quantity",
          "type": "uint256"
        }
      ],
      "name": "buyProduct",
      "outputs": [
        {
          "name": "success",
          "type": "bool"
        }
      ],
      "payable": true,
      "stateMutability": "payable",
      "type": "function"
    },
    {
      "constant": false,
      "inputs": [
        {
          "name": "storeId",
          "type": "uint256"
        }
      ],
      "name": "withdrawFunds",
      "outputs": [
        {
          "name": "success",
          "type": "bool"
        }
      ],
      "payable": true,
      "stateMutability": "payable",
      "type": "function"
    },
    {
      "constant": false,
      "inputs": [
        {
          "name": "storeId",
          "type": "uint256"
        }
      ],
      "name": "fetchAllProductInfo",
      "outputs": [],
      "payable": false,
      "stateMutability": "nonpayable",
      "type": "function"
    },
    {
      "constant": true,
      "inputs": [
        {
          "name": "storeId",
          "type": "uint256"
        }
      ],
      "name": "fetchStoreInfo",
      "outputs": [
        {
          "name": "selectedStoreId",
          "type": "uint256"
        },
        {
          "name": "name",
          "type": "string"
        },
        {
          "name": "storeOwner",
          "type": "address"
        },
        {
          "name": "state",
          "type": "uint8"
        },
        {
          "name": "balance",
          "type": "uint256"
        },
        {
          "name": "nextProductSku",
          "type": "uint256"
        }
      ],
      "payable": false,
      "stateMutability": "view",
      "type": "function"
    },
    {
      "constant": false,
      "inputs": [],
      "name": "fetchAllStoreInfo",
      "outputs": [
        {
          "name": "success",
          "type": "bool"
        }
      ],
      "payable": false,
      "stateMutability": "nonpayable",
      "type": "function"
    },
    {
      "constant": false,
      "inputs": [
        {
          "name": "_address",
          "type": "address"
        }
      ],
      "name": "fetchStoreOwnerInfo",
      "outputs": [
        {
          "name": "name",
          "type": "string"
        }
      ],
      "payable": false,
      "stateMutability": "nonpayable",
      "type": "function"
    },
    {
      "constant": false,
      "inputs": [],
      "name": "fetchContractBalance",
      "outputs": [
        {
          "name": "balance",
          "type": "uint256"
        }
      ],
      "payable": false,
      "stateMutability": "nonpayable",
      "type": "function"
    },
    {
      "constant": true,
      "inputs": [],
      "name": "fetchContractOwner",
      "outputs": [
        {
          "name": "contractOwner",
          "type": "address"
        }
      ],
      "payable": false,
      "stateMutability": "view",
      "type": "function"
    },
    {
      "constant": false,
      "inputs": [],
      "name": "identifyUserRole",
      "outputs": [
        {
          "name": "success",
          "type": "bool"
        }
      ],
      "payable": false,
      "stateMutability": "nonpayable",
      "type": "function"
    },
    {
      "constant": false,
      "inputs": [],
      "name": "isStoreOwner",
      "outputs": [
        {
          "name": "_storeOwnerState",
          "type": "uint8"
        }
      ],
      "payable": false,
      "stateMutability": "nonpayable",
      "type": "function"
    }
  ],
  "bytecode": "0x60806040526000600155670de0b6b3a76400006002556000600360006101000a81548160ff02191690831515021790555034801561003c57600080fd5b50336000806101000a81548173ffffffffffffffffffffffffffffffffffffffff021916908373ffffffffffffffffffffffffffffffffffffffff1602179055506001600460008060009054906101000a900473ffffffffffffffffffffffffffffffffffffffff1673ffffffffffffffffffffffffffffffffffffffff1673ffffffffffffffffffffffffffffffffffffffff16815260200190815260200160002060006101000a81548160ff021916908315150217905550612a7c806101056000396000f300608060405260043610610112576000357c0100000000000000000000000000000000000000000000000000000000900463ffffffff168063057cc2a1146101175780630fc46fc9146101ef578063155dd5ee14610246578063174c46521461027e5780631bfc2113146102b75780631edd091e146102e25780632510670e1461039e5780632f68a48c14610467578063429b62e51461056a5780635287d535146105c55780636494538714610614578063662feffc146106f95780637db48b4c1461080e57806390fd105f1461083d578063bdaf548714610868578063beff957714610895578063e8a59cd8146108e1578063ec39214d146109e4578063ee477d7614610a13578063f2a45c1914610a35575b600080fd5b34801561012357600080fd5b50610158600480360381019080803573ffffffffffffffffffffffffffffffffffffffff169060200190929190505050610a64565b604051808060200184815260200183600181111561017257fe5b60ff168152602001828103825285818151815260200191508051906020019080838360005b838110156101b2578082015181840152602081019050610197565b50505050905090810190601f1680156101df5780820380516001836020036101000a031916815260200191505b5094505050505060405180910390f35b3480156101fb57600080fd5b50610204610b33565b604051808273ffffffffffffffffffffffffffffffffffffffff1673ffffffffffffffffffffffffffffffffffffffff16815260200191505060405180910390f35b61026460048036038101908080359060200190929190505050610b5c565b604051808215151515815260200191505060405180910390f35b34801561028a57600080fd5b50610293610de9565b604051808260018111156102a357fe5b60ff16815260200191505060405180910390f35b3480156102c357600080fd5b506102cc610e40565b6040518082815260200191505060405180910390f35b3480156102ee57600080fd5b50610323600480360381019080803573ffffffffffffffffffffffffffffffffffffffff169060200190929190505050610e46565b6040518080602001828103825283818151815260200191508051906020019080838360005b83811015610363578082015181840152602081019050610348565b50505050905090810190601f1680156103905780820380516001836020036101000a031916815260200191505b509250505060405180910390f35b3480156103aa57600080fd5b50610425600480360381019080803573ffffffffffffffffffffffffffffffffffffffff169060200190929190803590602001908201803590602001908080601f0160208091040260200160405190810160405280939291908181526020018383808284378201915050505050509192919290505050611116565b604051808273ffffffffffffffffffffffffffffffffffffffff1673ffffffffffffffffffffffffffffffffffffffff16815260200191505060405180910390f35b34801561047357600080fd5b5061049260048036038101908080359060200190929190505050611359565b60405180878152602001806020018673ffffffffffffffffffffffffffffffffffffffff1673ffffffffffffffffffffffffffffffffffffffff1681526020018560018111156104de57fe5b60ff168152602001848152602001838152602001828103825287818151815260200191508051906020019080838360005b8381101561052a57808201518184015260208101905061050f565b50505050905090810190601f1680156105575780820380516001836020036101000a031916815260200191505b5097505050505050505060405180910390f35b34801561057657600080fd5b506105ab600480360381019080803573ffffffffffffffffffffffffffffffffffffffff1690602001909291905050506114ca565b604051808215151515815260200191505060405180910390f35b3480156105d157600080fd5b506105fa60048036038101908080359060200190929190803590602001909291905050506114ea565b604051808215151515815260200191505060405180910390f35b34801561062057600080fd5b506106df60048036038101908080359060200190929190803590602001908201803590602001908080601f016020809104026020016040519081016040528093929190818152602001838380828437820191505050505050919291929080359060200190929190803590602001908201803590602001908080601f016020809104026020016040519081016040528093929190818152602001838380828437820191505050505050919291929080359060200190929190505050611757565b604051808215151515815260200191505060405180910390f35b34801561070557600080fd5b50610760600480360381019080803590602001908201803590602001908080601f0160208091040260200160405190810160405280939291908181526020018383808284378201915050505050509192919290505050611a37565b60405180806020018373ffffffffffffffffffffffffffffffffffffffff1673ffffffffffffffffffffffffffffffffffffffff168152602001828103825284818151815260200191508051906020019080838360005b838110156107d25780820151818401526020810190506107b7565b50505050905090810190601f1680156107ff5780820380516001836020036101000a031916815260200191505b50935050505060405180910390f35b34801561081a57600080fd5b50610823611e42565b604051808215151515815260200191505060405180910390f35b34801561084957600080fd5b50610852611e55565b6040518082815260200191505060405180910390f35b34801561087457600080fd5b5061089360048036038101908080359060200190929190505050611e74565b005b6108c7600480360381019080803590602001909291908035906020019092919080359060200190929190505050612117565b604051808215151515815260200191505060405180910390f35b3480156108ed57600080fd5b5061090c60048036038101908080359060200190929190505050612441565b60405180878152602001806020018673ffffffffffffffffffffffffffffffffffffffff1673ffffffffffffffffffffffffffffffffffffffff16815260200185600181111561095857fe5b60ff168152602001848152602001838152602001828103825287818151815260200191508051906020019080838360005b838110156109a4578082015181840152602081019050610989565b50505050905090810190601f1680156109d15780820380516001836020036101000a031916815260200191505b5097505050505050505060405180910390f35b3480156109f057600080fd5b506109f9612542565b604051808215151515815260200191505060405180910390f35b610a1b612734565b604051808215151515815260200191505060405180910390f35b348015610a4157600080fd5b50610a4a612761565b604051808215151515815260200191505060405180910390f35b6005602052806000526040600020600091509050806000018054600181600116156101000203166002900480601f016020809104026020016040519081016040528092919081815260200182805460018160011615610100020316600290048015610b105780601f10610ae557610100808354040283529160200191610b10565b820191906000526020600020905b815481529060010190602001808311610af357829003601f168201915b5050505050908060010154908060020160009054906101000a900460ff16905083565b60008060009054906101000a900473ffffffffffffffffffffffffffffffffffffffff16905090565b6000816006600082815260200190815260200160002060020160009054906101000a900473ffffffffffffffffffffffffffffffffffffffff1673ffffffffffffffffffffffffffffffffffffffff163373ffffffffffffffffffffffffffffffffffffffff16141515610c38576040517f08c379a00000000000000000000000000000000000000000000000000000000081526004018080602001828103825260198152602001807f596f7520646f206e6f74206f776e207468652073746f72652e0000000000000081525060200191505060405180910390fd5b600360009054906101000a900460ff16151515610ce3576040517f08c379a00000000000000000000000000000000000000000000000000000000081526004018080602001828103825260378152602001807f416e6f74686572207472616e7366657220697320696e2070726f636573732c2081526020017f706c656173652074727920616761696e206c617465722e00000000000000000081525060400191505060405180910390fd5b6001600360006101000a81548160ff0219169083151502179055503373ffffffffffffffffffffffffffffffffffffffff166108fc60066000868152602001908152602001600020600301549081150290604051600060405180830381858888f19350505050158015610d5a573d6000803e3d6000fd5b507fc1b372cb0f5d1617f88a66256ff83ba7b9e43595dd372a9cb48c7344ba3fad5660066000858152602001908152602001600020600301546040518082815260200191505060405180910390a1600060066000858152602001908152602001600020600301819055506000600360006101000a81548160ff0219169083151502179055506001915050919050565b6000600560003373ffffffffffffffffffffffffffffffffffffffff1673ffffffffffffffffffffffffffffffffffffffff16815260200190815260200160002060020160009054906101000a900460ff16905090565b60025481565b606060007f31294df7ca63c4dd4826a2ddbb95a1014e949f901fac2a56e42dfc46d0e927db600560008573ffffffffffffffffffffffffffffffffffffffff1673ffffffffffffffffffffffffffffffffffffffff1681526020019081526020016000206000016040518080602001828103825283818154600181600116156101000203166002900481526020019150805460018160011615610100020316600290048015610f365780601f10610f0b57610100808354040283529160200191610f36565b820191906000526020600020905b815481529060010190602001808311610f1957829003601f168201915b50509250505060405180910390a1600090505b600560008473ffffffffffffffffffffffffffffffffffffffff1673ffffffffffffffffffffffffffffffffffffffff16815260200190815260200160002060030180549050811015611033577f8fa9714928f2bf9dd8400ffbb4ecd5c483e40552043770c54a5394f896e58a89600560008573ffffffffffffffffffffffffffffffffffffffff1673ffffffffffffffffffffffffffffffffffffffff1681526020019081526020016000206003018281548110151561100657fe5b90600052602060002001546040518082815260200191505060405180910390a18080600101915050610f49565b600560008473ffffffffffffffffffffffffffffffffffffffff1673ffffffffffffffffffffffffffffffffffffffff1681526020019081526020016000206000018054600181600116156101000203166002900480601f0160208091040260200160405190810160405280929190818152602001828054600181600116156101000203166002900480156111095780601f106110de57610100808354040283529160200191611109565b820191906000526020600020905b8154815290600101906020018083116110ec57829003601f168201915b5050505050915050919050565b600060011515600460003373ffffffffffffffffffffffffffffffffffffffff1673ffffffffffffffffffffffffffffffffffffffff16815260200190815260200160002060009054906101000a900460ff1615151415156111e0576040517f08c379a00000000000000000000000000000000000000000000000000000000081526004018080602001828103825260158152602001807f596f7520617265206e6f7420616e2061646d696e2e000000000000000000000081525060200191505060405180910390fd5b6080604051908101604052808381526020016000815260200160018081111561120557fe5b8152602001600060405190808252806020026020018201604052801561123a5781602001602082028038833980820191505090505b50815250600560008573ffffffffffffffffffffffffffffffffffffffff1673ffffffffffffffffffffffffffffffffffffffff1681526020019081526020016000206000820151816000019080519060200190611299929190612885565b506020820151816001015560408201518160020160006101000a81548160ff021916908360018111156112c857fe5b021790555060608201518160030190805190602001906112e9929190612905565b509050507f46c2a6f51331f232c11118fc483f7ae9e777baf04d7cfd208de45faa56b3dd3e83604051808273ffffffffffffffffffffffffffffffffffffffff1673ffffffffffffffffffffffffffffffffffffffff16815260200191505060405180910390a182905092915050565b60006060600080600080600660008881526020019081526020016000206000015460066000898152602001908152602001600020600101600660008a815260200190815260200160002060020160009054906101000a900473ffffffffffffffffffffffffffffffffffffffff16600660008b815260200190815260200160002060020160149054906101000a900460ff16600660008c815260200190815260200160002060030154600660008d815260200190815260200160002060050154848054600181600116156101000203166002900480601f0160208091040260200160405190810160405280929190818152602001828054600181600116156101000203166002900480156114ae5780601f10611483576101008083540402835291602001916114ae565b820191906000526020600020905b81548152906001019060200180831161149157829003601f168201915b5050505050945095509550955095509550955091939550919395565b60046020528060005260406000206000915054906101000a900460ff1681565b6000826006600082815260200190815260200160002060020160009054906101000a900473ffffffffffffffffffffffffffffffffffffffff1673ffffffffffffffffffffffffffffffffffffffff163373ffffffffffffffffffffffffffffffffffffffff161415156115c6576040517f08c379a00000000000000000000000000000000000000000000000000000000081526004018080602001828103825260198152602001807f596f7520646f206e6f74206f776e207468652073746f72652e0000000000000081525060200191505060405180910390fd5b6001151560066000868152602001908152602001600020600401600085815260200190815260200160002060050160009054906101000a900460ff16151514151561169f576040517f08c379a00000000000000000000000000000000000000000000000000000000081526004018080602001828103825260288152602001807f596f7520646f206e6f74206861766520612070726f647563742077697468207481526020017f68617420534b552e00000000000000000000000000000000000000000000000081525060400191505060405180910390fd5b6006600085815260200190815260200160002060040160008481526020019081526020016000206000808201600090556001820160006116df9190612952565b60028201600090556003820160006116f79190612952565b60048201600090556005820160006101000a81549060ff021916905550507f56108406462998bc1d1dab7e8b6da9d06843111352f8c5a4288e4af59dc9c9ba836040518082815260200191505060405180910390a1600191505092915050565b600080600061176461299a565b886006600082815260200190815260200160002060020160009054906101000a900473ffffffffffffffffffffffffffffffffffffffff1673ffffffffffffffffffffffffffffffffffffffff163373ffffffffffffffffffffffffffffffffffffffff1614151561183e576040517f08c379a00000000000000000000000000000000000000000000000000000000081526004018080602001828103825260198152602001807f596f7520646f206e6f74206f776e207468652073746f72652e0000000000000081525060200191505060405180910390fd5b600660008b81526020019081526020016000206005015493506002548802925060c0604051908101604052808581526020018a815260200184815260200188815260200187815260200160011515815250915081600660008c815260200190815260200160002060040160008681526020019081526020016000206000820151816000015560208201518160010190805190602001906118df929190612885565b50604082015181600201556060820151816003019080519060200190611906929190612885565b506080820151816004015560a08201518160050160006101000a81548160ff021916908315150217905550905050600660008b8152602001908152602001600020600501546001600660008d81526020019081526020016000206005015401111515611a00576040517f08c379a00000000000000000000000000000000000000000000000000000000081526004018080602001828103825260238152602001807f596f7520686176652072656163686564207468652070726f64756374206c696d81526020017f69742e000000000000000000000000000000000000000000000000000000000081525060400191505060405180910390fd5b600660008b815260200190815260200160002060050160008154809291906001019190505550600194505050505095945050505050565b60606000611a436129d3565b600180811115611a4f57fe5b600560003373ffffffffffffffffffffffffffffffffffffffff1673ffffffffffffffffffffffffffffffffffffffff16815260200190815260200160002060020160009054906101000a900460ff166001811115611aaa57fe5b141515611b45576040517f08c379a00000000000000000000000000000000000000000000000000000000081526004018080602001828103825260258152602001807f596f7520617265206e6f74206120726567697374657265642073746f7265206f81526020017f776e65722e00000000000000000000000000000000000000000000000000000081525060400191505060405180910390fd5b60c06040519081016040528060015481526020018581526020013373ffffffffffffffffffffffffffffffffffffffff168152602001600180811115611b8757fe5b8152602001600081526020016000815250905080600660006001548152602001908152602001600020600082015181600001556020820151816001019080519060200190611bd6929190612885565b5060408201518160020160006101000a81548173ffffffffffffffffffffffffffffffffffffffff021916908373ffffffffffffffffffffffffffffffffffffffff16021790555060608201518160020160146101000a81548160ff02191690836001811115611c4257fe5b02179055506080820151816003015560a08201518160050155905050600560003373ffffffffffffffffffffffffffffffffffffffff1673ffffffffffffffffffffffffffffffffffffffff16815260200190815260200160002060030160015490806001815401808255809150509060018203906000526020600020016000909192909190915055506001546001805401111515611d6f576040517f08c379a00000000000000000000000000000000000000000000000000000000081526004018080602001828103825260238152602001807f676c6f62616c53746f7265496420686173207265616368656420697473206c6981526020017f6d6974000000000000000000000000000000000000000000000000000000000081525060400191505060405180910390fd5b600160008154809291906001019190505550600660006001805403815260200190815260200160002060010133818054600181600116156101000203166002900480601f016020809104026020016040519081016040528092919081815260200182805460018160011615610100020316600290048015611e315780601f10611e0657610100808354040283529160200191611e31565b820191906000526020600020905b815481529060010190602001808311611e1457829003601f168201915b505050505091509250925050915091565b600360009054906101000a900460ff1681565b60003073ffffffffffffffffffffffffffffffffffffffff1631905090565b60008090505b6006600083815260200190815260200160002060050154811015612113577f101b713e946a23e6ec22a31fd8fc3ec7253754c5af24fdb6ac16dd53b56f045860066000848152602001908152602001600020600401600083815260200190815260200160002060000154600660008581526020019081526020016000206004016000848152602001908152602001600020600101600660008681526020019081526020016000206004016000858152602001908152602001600020600201546006600087815260200190815260200160002060040160008681526020019081526020016000206003016006600088815260200190815260200160002060040160008781526020019081526020016000206004015460066000898152602001908152602001600020600401600088815260200190815260200160002060050160009054906101000a900460ff166040518087815260200180602001868152602001806020018581526020018415151515815260200183810383528881815460018160011615610100020316600290048152602001915080546001816001161561010002031660029004801561206f5780601f106120445761010080835404028352916020019161206f565b820191906000526020600020905b81548152906001019060200180831161205257829003601f168201915b50508381038252868181546001816001161561010002031660029004815260200191508054600181600116156101000203166002900480156120f25780601f106120c7576101008083540402835291602001916120f2565b820191906000526020600020905b8154815290600101906020018083116120d557829003601f168201915b50509850505050505050505060405180910390a18080600101915050611e7a565b5050565b600080600060066000878152602001908152602001600020600401600086815260200190815260200160002060020154915083820290507f8b929544acf50af2429000e4f990c5e67cfef3faec7070e650bbdad574c95124816040518082815260200191505060405180910390a18034141515612222576040517f08c379a00000000000000000000000000000000000000000000000000000000081526004018080602001828103825260278152602001807f596f75206e65656420746f2073656e6420657861637420616d6f756e7420726581526020017f7175697265642e0000000000000000000000000000000000000000000000000081525060400191505060405180910390fd5b6000600660008881526020019081526020016000206004016000878152602001908152602001600020600401541115156122ea576040517f08c379a000000000000000000000000000000000000000000000000000000000815260040180806020018281038252602a8152602001807f54686520726571756573742070726f6475637420686173206e6f206d6f72652081526020017f696e76656e746f72792e0000000000000000000000000000000000000000000081525060400191505060405180910390fd5b83600660008881526020019081526020016000206004016000878152602001908152602001600020600401540360066000888152602001908152602001600020600401600087815260200190815260200160002060040181905550600660008781526020019081526020016000206003015434600660008981526020019081526020016000206003015401111515612410576040517f08c379a00000000000000000000000000000000000000000000000000000000081526004018080602001828103825260278152602001807f596f752068617665207265616368656420746865206d61782062616c616e636581526020017f206c696d69742e0000000000000000000000000000000000000000000000000081525060400191505060405180910390fd5b3460066000888152602001908152602001600020600301600082825401925050819055506001925050509392505050565b6006602052806000526040600020600091509050806000015490806001018054600181600116156101000203166002900480601f0160208091040260200160405190810160405280929190818152602001828054600181600116156101000203166002900480156124f35780601f106124c8576101008083540402835291602001916124f3565b820191906000526020600020905b8154815290600101906020018083116124d657829003601f168201915b5050505050908060020160009054906101000a900473ffffffffffffffffffffffffffffffffffffffff16908060020160149054906101000a900460ff16908060030154908060050154905086565b600080600090505b60015481101561272c577f20de00de16229a492f0497d9d642ac9645ab9b2e8df48a1ee2d063b86eae07006006600083815260200190815260200160002060000154600660008481526020019081526020016000206001016006600085815260200190815260200160002060020160009054906101000a900473ffffffffffffffffffffffffffffffffffffffff166006600086815260200190815260200160002060020160149054906101000a900460ff166006600087815260200190815260200160002060030154600660008881526020019081526020016000206005015460405180878152602001806020018673ffffffffffffffffffffffffffffffffffffffff1673ffffffffffffffffffffffffffffffffffffffff16815260200185600181111561267757fe5b60ff16815260200184815260200183815260200182810382528781815460018160011615610100020316600290048152602001915080546001816001161561010002031660029004801561270c5780601f106126e15761010080835404028352916020019161270c565b820191906000526020600020905b8154815290600101906020018083116126ef57829003601f168201915b505097505050505050505060405180910390a1808060010191505061254a565b600191505090565b60003460066000808152602001908152602001600020600301600082825401925050819055506001905090565b60007fde430b9b16748ad1e9ae3e8d54c943099f1a8e6d1921d8042f487133ed834094600460003373ffffffffffffffffffffffffffffffffffffffff1673ffffffffffffffffffffffffffffffffffffffff16815260200190815260200160002060009054906101000a900460ff16604051808215151515815260200191505060405180910390a17f8b4967247015a8a04dd530727198049ab975b53c0f943381a84e114173b25d0d600560003373ffffffffffffffffffffffffffffffffffffffff1673ffffffffffffffffffffffffffffffffffffffff16815260200190815260200160002060020160009054906101000a900460ff166040518082600181111561286b57fe5b60ff16815260200191505060405180910390a16001905090565b828054600181600116156101000203166002900490600052602060002090601f016020900481019282601f106128c657805160ff19168380011785556128f4565b828001600101855582156128f4579182015b828111156128f35782518255916020019190600101906128d8565b5b5090506129019190612a2b565b5090565b828054828255906000526020600020908101928215612941579160200282015b82811115612940578251825591602001919060010190612925565b5b50905061294e9190612a2b565b5090565b50805460018160011615610100020316600290046000825580601f106129785750612997565b601f0160209004906000526020600020908101906129969190612a2b565b5b50565b60c06040519081016040528060008152602001606081526020016000815260200160608152602001600081526020016000151581525090565b60c0604051908101604052806000815260200160608152602001600073ffffffffffffffffffffffffffffffffffffffff16815260200160006001811115612a1757fe5b815260200160008152602001600081525090565b612a4d91905b80821115612a49576000816000905550600101612a31565b5090565b905600a165627a7a7230582091cf2c5137bcc3edb22887d94eb0c3fd9d3388bdbbfbbba46c161046c0e0cf170029",
  "source": "pragma solidity ^0.4.23;\n\ncontract Marketplace {\n  address owner;\n  /// TODO: make admins private\n  uint globalStoreId = 0;\n  // uint256\n  uint public globalUnit = 1 ether;\n  // TODO: make globalLockBalances private. public during beta for testing\n  bool public globalLockBalances = false;\n  /// TODO: make storeId private \n  mapping (address => bool) public admins;\n  mapping (address => StoreOwner) public storeOwners;\n  mapping (uint => Store) public stores;\n\n  constructor() {\n    owner = msg.sender;\n    admins[owner] = true;\n  }\n  \n  // TODO: do you need store ownder address in StoreOwner struct? Already in mapping \n  struct StoreOwner {\n    string name;\n    // TODO: bit restriction on balance?\n    uint balance;\n    OwnerState state;\n    // TODO: cant return dynamic array so how will store owners how all the stores they own? Emit events.\n    uint[] storeIdsOwned;\n  }\n  \n  \n  enum OwnerState {Deactivated, Approved}\n  enum StoreState {Inactive, Active}\n\n  struct Store {\n    uint storeId;\n    string name;\n    address storeOwner;\n    StoreState state;\n    uint balance;\n    mapping (uint => Product) products;\n    uint nextProductSku;\n  }\n  struct Product {\n    uint sku;\n    string name;\n    uint price;\n    string description;\n    uint inventory;\n    bool active;\n    // TODO: add image via string and IPFS?\n  }\n  \n  /// modifiers for authorized access control\n  modifier onlyAdmin () {\n    require (admins[msg.sender] == true, \"You are not an admin.\");\n    _;\n  }\n  modifier onlyStoreOwners() {\n    require (storeOwners[msg.sender].state == OwnerState.Approved, \"You are not a registered store owner.\");\n    _;\n  }\n  modifier onlyOwnerOfStore(uint selectedStoreId) {\n    require (msg.sender == stores[selectedStoreId].storeOwner, \"You do not own the store.\");\n    _;\n  }\n  \n  /// Events\n  event AddedNewStoreOwner (address _address);\n  event AddProduct (uint skuAdded);\n  event RemoveProduct (uint skuRemoved);\n  event StoreIdOwned (uint storeIdOwned);\n  event StoreOwnerName (string storeOwnerName);\n  event StoreInfo (uint storeId, string name, address storeOwner, StoreState state, uint balance, uint nextProductSku);\n  event ProductInfo (uint sku, string name, uint price, string description, uint inventory, bool active);\n  event AmountRequired (uint amountRequired);\n  event WithdrewFunds (uint fundsWithdrawn);\n  event EventIsAdmin (bool isAdmin);\n  event EventIsStoreOwner (OwnerState _ownerState);\n  \n  function giveFreeMoney() public payable returns (bool success) {\n    stores[0].balance += msg.value;\n    return true;\n  }\n\n  function addStoreOwner(address _address, string _name) \n    onlyAdmin() \n    returns (address newStoreOwner) \n  {\n    storeOwners[_address] = StoreOwner({name: _name, balance: 0, state: OwnerState.Approved, storeIdsOwned: new uint[](0)});\n    emit AddedNewStoreOwner(_address);\n    return (_address);\n  }\n  \n  function addStore(string storeName) \n    public \n    onlyStoreOwners() \n    returns (string newStoreName, address storeOwner) \n    {\n      Store memory newStore = Store({\n        storeId: globalStoreId,\n        name: storeName,\n        storeOwner: msg.sender,\n        state: StoreState.Active,\n        nextProductSku: 0,\n        balance: 0\n      });\n    // record the new Store in stores mapping and storeOwners struct \n    stores[globalStoreId] = newStore;\n    // TODO: check globalStoreId array\n    storeOwners[msg.sender].storeIdsOwned.push(globalStoreId);\n    require(globalStoreId + 1 > globalStoreId, \"globalStoreId has reached its limit\");\n    globalStoreId++;\n    // check for storeId over integer \n    return (stores[globalStoreId - 1].name, msg.sender);\n  }\n  \n  function addProduct(uint storeId, string name, uint price, string description, uint inventory) \n  onlyOwnerOfStore(storeId) returns (bool success) {\n    uint nextSku = stores[storeId].nextProductSku;\n    // TODO: Add SafeMath library\n    uint productPrice = price * globalUnit;\n    Product memory newProduct = Product({\n      sku: nextSku,\n      name: name,\n      price: productPrice,\n      description: description,\n      inventory: inventory,\n      active: true\n    });\n    stores[storeId].products[nextSku] = newProduct;\n    // Prevent integer overflow.\n    // TODO: implement admin function or delegate call to expand product offering if over limit \n    require(stores[storeId].nextProductSku + 1 > stores[storeId].nextProductSku, \"You have reached the product limit.\");\n    stores[storeId].nextProductSku++;\n    return true;\n  }\n  \n  function removeProduct(uint storeId, uint sku)\n  onlyOwnerOfStore(storeId) returns (bool success) {\n    require(stores[storeId].products[sku].active == true, \"You do not have a product with that SKU.\");\n    delete stores[storeId].products[sku];\n    emit RemoveProduct(sku);\n    return true;\n  }\n  \n  function buyProduct(uint storeId, uint sku, uint quantity) payable returns (bool success) {\n    // TODO: think about if we want to only accept exact change or accept more and refund extra \n    uint price = stores[storeId].products[sku].price;\n    // TODO: integrate SafeMath library\n    uint requiredAmount = price * quantity;\n    emit AmountRequired(requiredAmount);\n    require(msg.value == requiredAmount, \"You need to send exact amount required.\");\n    require(stores[storeId].products[sku].inventory > 0, \"The request product has no more inventory.\");\n    stores[storeId].products[sku].inventory = stores[storeId].products[sku].inventory - quantity;\n    // TODO: check for integer overflow\n    require(stores[storeId].balance + msg.value > stores[storeId].balance, \"You have reached the max balance limit.\");\n    stores[storeId].balance += msg.value;\n    return true;\n  }\n  \n  // TODO: consider allowing owners to withdraw partial store balances\n  function withdrawFunds(uint storeId) onlyOwnerOfStore(storeId) payable returns (bool success) {\n    // Note: Implemented mutex security pattern\n    require(!globalLockBalances, \"Another transfer is in process, please try again later.\");\n    globalLockBalances = true;\n    (msg.sender).transfer(stores[storeId].balance);\n    emit WithdrewFunds(stores[storeId].balance);\n    stores[storeId].balance = 0;\n    globalLockBalances = false;\n    return true;\n  }\n  \n  /// Fetches for testing purposes\n  // TODO: limit to only store owner\n  function fetchAllProductInfo(uint storeId) {\n    for (uint i = 0; i < stores[storeId].nextProductSku; i++) {\n      emit ProductInfo(\n        stores[storeId].products[i].sku,\n        stores[storeId].products[i].name,\n        stores[storeId].products[i].price,\n        stores[storeId].products[i].description,\n        stores[storeId].products[i].inventory,\n        stores[storeId].products[i].active\n      );\n    }\n  }\n  \n  function fetchStoreInfo(uint storeId) public view returns (\n    uint selectedStoreId,\n    string name,\n    address storeOwner,\n    StoreState state,\n    uint balance,\n    uint nextProductSku\n  ) {\n    return (\n      stores[storeId].storeId,\n      stores[storeId].name,\n      stores[storeId].storeOwner,\n      stores[storeId].state,\n      stores[storeId].balance,\n      stores[storeId].nextProductSku\n    );\n  }\n  \n  function fetchAllStoreInfo() public returns (bool success) {\n    for(uint i = 0; i < globalStoreId; i++) {\n      emit StoreInfo(\n        stores[i].storeId,\n        stores[i].name,\n        stores[i].storeOwner,\n        stores[i].state,\n        stores[i].balance,\n        stores[i].nextProductSku);\n    }\n    return true;\n  }\n\n  function fetchStoreOwnerInfo(address _address) public returns (string name) {\n    // cannot return dynamic array so emitting events instead to show owners all storeIds owned\n    emit StoreOwnerName(storeOwners[_address].name);\n\n    for (uint i = 0; i < storeOwners[_address].storeIdsOwned.length; i++) {\n      emit StoreIdOwned(storeOwners[_address].storeIdsOwned[i]);\n    }\n    return (storeOwners[_address].name);\n  }\n  \n  function fetchContractBalance() public returns (uint balance) {\n    return this.balance;\n  }\n  \n  function fetchContractOwner() public view returns (address contractOwner) {\n    return owner;\n  }\n\n\n  function identifyUserRole() public returns (bool success) {\n    emit EventIsAdmin(admins[msg.sender]);\n    emit EventIsStoreOwner(storeOwners[msg.sender].state);\n    return true;\n  }\n  \n  function isStoreOwner() public returns (OwnerState _storeOwnerState) {\n    return storeOwners[msg.sender].state;\n  }\n}\n",
  "sourcePath": "/Users/Rocky/code/consensys/marketplace/marketplace/contracts/Marketplace.sol",
  "compiler": {
    "name": "solc",
    "version": "0.4.24+commit.e67f0147.Emscripten.clang"
  },
  "schemaVersion": "2.0.0",
  "updatedAt": "2018-08-10T23:24:38.884Z"
}