{
  "contractName": "Marketplace",
  "abi": [
    {
      "constant": true,
      "inputs": [
        {
          "name": "",
          "type": "address"
        }
      ],
      "name": "storeOwners",
      "outputs": [
        {
          "name": "name",
          "type": "string"
        },
        {
          "name": "balance",
          "type": "uint256"
        },
        {
          "name": "state",
          "type": "uint8"
        }
      ],
      "payable": false,
      "stateMutability": "view",
      "type": "function"
    },
    {
      "constant": true,
      "inputs": [],
      "name": "globalUnit",
      "outputs": [
        {
          "name": "",
          "type": "uint256"
        }
      ],
      "payable": false,
      "stateMutability": "view",
      "type": "function"
    },
    {
      "constant": true,
      "inputs": [],
      "name": "owner",
      "outputs": [
        {
          "name": "",
          "type": "address"
        }
      ],
      "payable": false,
      "stateMutability": "view",
      "type": "function"
    },
    {
      "constant": true,
      "inputs": [
        {
          "name": "",
          "type": "uint256"
        }
      ],
      "name": "stores",
      "outputs": [
        {
          "name": "storeId",
          "type": "uint256"
        },
        {
          "name": "name",
          "type": "string"
        },
        {
          "name": "storeOwner",
          "type": "address"
        },
        {
          "name": "state",
          "type": "uint8"
        },
        {
          "name": "balance",
          "type": "uint256"
        },
        {
          "name": "nextProductSku",
          "type": "uint256"
        }
      ],
      "payable": false,
      "stateMutability": "view",
      "type": "function"
    },
    {
      "inputs": [],
      "payable": false,
      "stateMutability": "nonpayable",
      "type": "constructor"
    },
    {
      "anonymous": false,
      "inputs": [
        {
          "indexed": false,
          "name": "_address",
          "type": "address"
        }
      ],
      "name": "AddedNewStoreOwner",
      "type": "event"
    },
    {
      "anonymous": false,
      "inputs": [
        {
          "indexed": false,
          "name": "skuAdded",
          "type": "uint256"
        }
      ],
      "name": "AddProduct",
      "type": "event"
    },
    {
      "anonymous": false,
      "inputs": [
        {
          "indexed": false,
          "name": "skuRemoved",
          "type": "uint256"
        }
      ],
      "name": "RemoveProduct",
      "type": "event"
    },
    {
      "anonymous": false,
      "inputs": [
        {
          "indexed": false,
          "name": "storeIdOwned",
          "type": "uint256"
        }
      ],
      "name": "StoreIdOwned",
      "type": "event"
    },
    {
      "anonymous": false,
      "inputs": [
        {
          "indexed": false,
          "name": "storeOwnerName",
          "type": "string"
        }
      ],
      "name": "StoreOwnerName",
      "type": "event"
    },
    {
      "anonymous": false,
      "inputs": [
        {
          "indexed": false,
          "name": "storeId",
          "type": "uint256"
        },
        {
          "indexed": false,
          "name": "name",
          "type": "string"
        },
        {
          "indexed": false,
          "name": "storeOwner",
          "type": "address"
        },
        {
          "indexed": false,
          "name": "state",
          "type": "uint8"
        },
        {
          "indexed": false,
          "name": "balance",
          "type": "uint256"
        },
        {
          "indexed": false,
          "name": "nextProductSku",
          "type": "uint256"
        }
      ],
      "name": "StoreInfo",
      "type": "event"
    },
    {
      "anonymous": false,
      "inputs": [
        {
          "indexed": false,
          "name": "sku",
          "type": "uint256"
        },
        {
          "indexed": false,
          "name": "name",
          "type": "string"
        },
        {
          "indexed": false,
          "name": "price",
          "type": "uint256"
        },
        {
          "indexed": false,
          "name": "description",
          "type": "string"
        },
        {
          "indexed": false,
          "name": "inventory",
          "type": "uint256"
        },
        {
          "indexed": false,
          "name": "active",
          "type": "bool"
        }
      ],
      "name": "ProductInfo",
      "type": "event"
    },
    {
      "anonymous": false,
      "inputs": [
        {
          "indexed": false,
          "name": "amountRequired",
          "type": "uint256"
        }
      ],
      "name": "AmountRequired",
      "type": "event"
    },
    {
      "anonymous": false,
      "inputs": [
        {
          "indexed": false,
          "name": "fundsWithdrawn",
          "type": "uint256"
        }
      ],
      "name": "WithdrewFunds",
      "type": "event"
    },
    {
      "anonymous": false,
      "inputs": [
        {
          "indexed": false,
          "name": "isAdmin",
          "type": "bool"
        }
      ],
      "name": "EventIsAdmin",
      "type": "event"
    },
    {
      "anonymous": false,
      "inputs": [
        {
          "indexed": false,
          "name": "_ownerState",
          "type": "uint8"
        }
      ],
      "name": "EventIsStoreOwner",
      "type": "event"
    },
    {
      "constant": true,
      "inputs": [],
      "name": "identifyUserRole",
      "outputs": [
        {
          "name": "_isAdmin",
          "type": "bool"
        },
        {
          "name": "_isStoreOwner",
          "type": "bool"
        }
      ],
      "payable": false,
      "stateMutability": "view",
      "type": "function"
    },
    {
      "constant": false,
      "inputs": [
        {
          "name": "_address",
          "type": "address"
        },
        {
          "name": "_name",
          "type": "string"
        }
      ],
      "name": "addStoreOwner",
      "outputs": [],
      "payable": false,
      "stateMutability": "nonpayable",
      "type": "function"
    },
    {
      "constant": false,
      "inputs": [
        {
          "name": "storeName",
          "type": "string"
        }
      ],
      "name": "addStore",
      "outputs": [],
      "payable": false,
      "stateMutability": "nonpayable",
      "type": "function"
    },
    {
      "constant": false,
      "inputs": [
        {
          "name": "storeId",
          "type": "uint256"
        },
        {
          "name": "name",
          "type": "string"
        },
        {
          "name": "price",
          "type": "uint256"
        },
        {
          "name": "description",
          "type": "string"
        },
        {
          "name": "inventory",
          "type": "uint256"
        }
      ],
      "name": "addProduct",
      "outputs": [
        {
          "name": "success",
          "type": "bool"
        }
      ],
      "payable": false,
      "stateMutability": "nonpayable",
      "type": "function"
    },
    {
      "constant": false,
      "inputs": [
        {
          "name": "storeId",
          "type": "uint256"
        },
        {
          "name": "sku",
          "type": "uint256"
        }
      ],
      "name": "removeProduct",
      "outputs": [
        {
          "name": "success",
          "type": "bool"
        }
      ],
      "payable": false,
      "stateMutability": "nonpayable",
      "type": "function"
    },
    {
      "constant": false,
      "inputs": [
        {
          "name": "storeId",
          "type": "uint256"
        },
        {
          "name": "sku",
          "type": "uint256"
        },
        {
          "name": "quantity",
          "type": "uint256"
        }
      ],
      "name": "buyProduct",
      "outputs": [
        {
          "name": "success",
          "type": "bool"
        }
      ],
      "payable": true,
      "stateMutability": "payable",
      "type": "function"
    },
    {
      "constant": false,
      "inputs": [
        {
          "name": "storeId",
          "type": "uint256"
        }
      ],
      "name": "withdrawFunds",
      "outputs": [
        {
          "name": "success",
          "type": "bool"
        }
      ],
      "payable": true,
      "stateMutability": "payable",
      "type": "function"
    },
    {
      "constant": false,
      "inputs": [],
      "name": "fetchAllStoreInfo",
      "outputs": [
        {
          "name": "success",
          "type": "bool"
        }
      ],
      "payable": false,
      "stateMutability": "nonpayable",
      "type": "function"
    },
    {
      "constant": false,
      "inputs": [
        {
          "name": "storeId",
          "type": "uint256"
        }
      ],
      "name": "fetchAllProductInfo",
      "outputs": [],
      "payable": false,
      "stateMutability": "nonpayable",
      "type": "function"
    },
    {
      "constant": true,
      "inputs": [
        {
          "name": "_address",
          "type": "address"
        }
      ],
      "name": "fetchStoreOwnerInfo",
      "outputs": [
        {
          "name": "storeOwnerName",
          "type": "string"
        }
      ],
      "payable": false,
      "stateMutability": "view",
      "type": "function"
    },
    {
      "constant": true,
      "inputs": [],
      "name": "fetchContractBalance",
      "outputs": [
        {
          "name": "balance",
          "type": "uint256"
        }
      ],
      "payable": false,
      "stateMutability": "view",
      "type": "function"
    }
  ],
  "bytecode": "0x60806040526000600155670de0b6b3a76400006002556000600360006101000a81548160ff02191690831515021790555034801561003c57600080fd5b50336000806101000a81548173ffffffffffffffffffffffffffffffffffffffff021916908373ffffffffffffffffffffffffffffffffffffffff1602179055506001600460008060009054906101000a900473ffffffffffffffffffffffffffffffffffffffff1673ffffffffffffffffffffffffffffffffffffffff1673ffffffffffffffffffffffffffffffffffffffff16815260200190815260200160002060006101000a81548160ff021916908315150217905550612251806101056000396000f3006080604052600436106100db576000357c0100000000000000000000000000000000000000000000000000000000900463ffffffff168063057cc2a1146100e0578063155dd5ee146101b85780631bfc2113146101f05780631edd091e1461021b5780632510670e146102d75780635287d5351461036057806364945387146103af578063662feffc146104945780638da5cb5b146104fd57806390fd105f14610554578063bdaf54871461057f578063beff9577146105ac578063e8a59cd8146105f8578063ec39214d146106fb578063f2a45c191461072a575b600080fd5b3480156100ec57600080fd5b50610121600480360381019080803573ffffffffffffffffffffffffffffffffffffffff169060200190929190505050610764565b604051808060200184815260200183600181111561013b57fe5b60ff168152602001828103825285818151815260200191508051906020019080838360005b8381101561017b578082015181840152602081019050610160565b50505050905090810190601f1680156101a85780820380516001836020036101000a031916815260200191505b5094505050505060405180910390f35b6101d660048036038101908080359060200190929190505050610833565b604051808215151515815260200191505060405180910390f35b3480156101fc57600080fd5b50610205610ac0565b6040518082815260200191505060405180910390f35b34801561022757600080fd5b5061025c600480360381019080803573ffffffffffffffffffffffffffffffffffffffff169060200190929190505050610ac6565b6040518080602001828103825283818151815260200191508051906020019080838360005b8381101561029c578082015181840152602081019050610281565b50505050905090810190601f1680156102c95780820380516001836020036101000a031916815260200191505b509250505060405180910390f35b3480156102e357600080fd5b5061035e600480360381019080803573ffffffffffffffffffffffffffffffffffffffff169060200190929190803590602001908201803590602001908080601f0160208091040260200160405190810160405280939291908181526020018383808284378201915050505050509192919290505050610baa565b005b34801561036c57600080fd5b506103956004803603810190808035906020019092919080359060200190929190505050610de6565b604051808215151515815260200191505060405180910390f35b3480156103bb57600080fd5b5061047a60048036038101908080359060200190929190803590602001908201803590602001908080601f016020809104026020016040519081016040528093929190818152602001838380828437820191505050505050919291929080359060200190929190803590602001908201803590602001908080601f016020809104026020016040519081016040528093929190818152602001838380828437820191505050505050919291929080359060200190929190505050611053565b604051808215151515815260200191505060405180910390f35b3480156104a057600080fd5b506104fb600480360381019080803590602001908201803590602001908080601f0160208091040260200160405190810160405280939291908181526020018383808284378201915050505050509192919290505050611333565b005b34801561050957600080fd5b5061051261167d565b604051808273ffffffffffffffffffffffffffffffffffffffff1673ffffffffffffffffffffffffffffffffffffffff16815260200191505060405180910390f35b34801561056057600080fd5b506105696116a2565b6040518082815260200191505060405180910390f35b34801561058b57600080fd5b506105aa600480360381019080803590602001909291905050506116c1565b005b6105de600480360381019080803590602001909291908035906020019092919080359060200190929190505050611964565b604051808215151515815260200191505060405180910390f35b34801561060457600080fd5b5061062360048036038101908080359060200190929190505050611c8e565b60405180878152602001806020018673ffffffffffffffffffffffffffffffffffffffff1673ffffffffffffffffffffffffffffffffffffffff16815260200185600181111561066f57fe5b60ff168152602001848152602001838152602001828103825287818151815260200191508051906020019080838360005b838110156106bb5780820151818401526020810190506106a0565b50505050905090810190601f1680156106e85780820380516001836020036101000a031916815260200191505b5097505050505050505060405180910390f35b34801561070757600080fd5b50610710611d8f565b604051808215151515815260200191505060405180910390f35b34801561073657600080fd5b5061073f611f81565b6040518083151515158152602001821515151581526020019250505060405180910390f35b6005602052806000526040600020600091509050806000018054600181600116156101000203166002900480601f0160208091040260200160405190810160405280929190818152602001828054600181600116156101000203166002900480156108105780601f106107e557610100808354040283529160200191610810565b820191906000526020600020905b8154815290600101906020018083116107f357829003601f168201915b5050505050908060010154908060020160009054906101000a900460ff16905083565b6000816006600082815260200190815260200160002060020160009054906101000a900473ffffffffffffffffffffffffffffffffffffffff1673ffffffffffffffffffffffffffffffffffffffff163373ffffffffffffffffffffffffffffffffffffffff1614151561090f576040517f08c379a00000000000000000000000000000000000000000000000000000000081526004018080602001828103825260198152602001807f596f7520646f206e6f74206f776e207468652073746f72652e0000000000000081525060200191505060405180910390fd5b600360009054906101000a900460ff161515156109ba576040517f08c379a00000000000000000000000000000000000000000000000000000000081526004018080602001828103825260378152602001807f416e6f74686572207472616e7366657220697320696e2070726f636573732c2081526020017f706c656173652074727920616761696e206c617465722e00000000000000000081525060400191505060405180910390fd5b6001600360006101000a81548160ff0219169083151502179055503373ffffffffffffffffffffffffffffffffffffffff166108fc60066000868152602001908152602001600020600301549081150290604051600060405180830381858888f19350505050158015610a31573d6000803e3d6000fd5b507fc1b372cb0f5d1617f88a66256ff83ba7b9e43595dd372a9cb48c7344ba3fad5660066000858152602001908152602001600020600301546040518082815260200191505060405180910390a1600060066000858152602001908152602001600020600301819055506000600360006101000a81548160ff0219169083151502179055506001915050919050565b60025481565b6060600560008373ffffffffffffffffffffffffffffffffffffffff1673ffffffffffffffffffffffffffffffffffffffff1681526020019081526020016000206000018054600181600116156101000203166002900480601f016020809104026020016040519081016040528092919081815260200182805460018160011615610100020316600290048015610b9e5780601f10610b7357610100808354040283529160200191610b9e565b820191906000526020600020905b815481529060010190602001808311610b8157829003601f168201915b50505050509050919050565b60011515600460003373ffffffffffffffffffffffffffffffffffffffff1673ffffffffffffffffffffffffffffffffffffffff16815260200190815260200160002060009054906101000a900460ff161515141515610c72576040517f08c379a00000000000000000000000000000000000000000000000000000000081526004018080602001828103825260158152602001807f596f7520617265206e6f7420616e2061646d696e2e000000000000000000000081525060200191505060405180910390fd5b60806040519081016040528082815260200160008152602001600180811115610c9757fe5b81526020016000604051908082528060200260200182016040528015610ccc5781602001602082028038833980820191505090505b50815250600560008473ffffffffffffffffffffffffffffffffffffffff1673ffffffffffffffffffffffffffffffffffffffff1681526020019081526020016000206000820151816000019080519060200190610d2b92919061205a565b506020820151816001015560408201518160020160006101000a81548160ff02191690836001811115610d5a57fe5b02179055506060820151816003019080519060200190610d7b9291906120da565b509050507f46c2a6f51331f232c11118fc483f7ae9e777baf04d7cfd208de45faa56b3dd3e82604051808273ffffffffffffffffffffffffffffffffffffffff1673ffffffffffffffffffffffffffffffffffffffff16815260200191505060405180910390a15050565b6000826006600082815260200190815260200160002060020160009054906101000a900473ffffffffffffffffffffffffffffffffffffffff1673ffffffffffffffffffffffffffffffffffffffff163373ffffffffffffffffffffffffffffffffffffffff16141515610ec2576040517f08c379a00000000000000000000000000000000000000000000000000000000081526004018080602001828103825260198152602001807f596f7520646f206e6f74206f776e207468652073746f72652e0000000000000081525060200191505060405180910390fd5b6001151560066000868152602001908152602001600020600401600085815260200190815260200160002060050160009054906101000a900460ff161515141515610f9b576040517f08c379a00000000000000000000000000000000000000000000000000000000081526004018080602001828103825260288152602001807f596f7520646f206e6f74206861766520612070726f647563742077697468207481526020017f68617420534b552e00000000000000000000000000000000000000000000000081525060400191505060405180910390fd5b600660008581526020019081526020016000206004016000848152602001908152602001600020600080820160009055600182016000610fdb9190612127565b6002820160009055600382016000610ff39190612127565b60048201600090556005820160006101000a81549060ff021916905550507f56108406462998bc1d1dab7e8b6da9d06843111352f8c5a4288e4af59dc9c9ba836040518082815260200191505060405180910390a1600191505092915050565b600080600061106061216f565b886006600082815260200190815260200160002060020160009054906101000a900473ffffffffffffffffffffffffffffffffffffffff1673ffffffffffffffffffffffffffffffffffffffff163373ffffffffffffffffffffffffffffffffffffffff1614151561113a576040517f08c379a00000000000000000000000000000000000000000000000000000000081526004018080602001828103825260198152602001807f596f7520646f206e6f74206f776e207468652073746f72652e0000000000000081525060200191505060405180910390fd5b600660008b81526020019081526020016000206005015493506002548802925060c0604051908101604052808581526020018a815260200184815260200188815260200187815260200160011515815250915081600660008c815260200190815260200160002060040160008681526020019081526020016000206000820151816000015560208201518160010190805190602001906111db92919061205a565b5060408201518160020155606082015181600301908051906020019061120292919061205a565b506080820151816004015560a08201518160050160006101000a81548160ff021916908315150217905550905050600660008b8152602001908152602001600020600501546001600660008d815260200190815260200160002060050154011115156112fc576040517f08c379a00000000000000000000000000000000000000000000000000000000081526004018080602001828103825260238152602001807f596f7520686176652072656163686564207468652070726f64756374206c696d81526020017f69742e000000000000000000000000000000000000000000000000000000000081525060400191505060405180910390fd5b600660008b815260200190815260200160002060050160008154809291906001019190505550600194505050505095945050505050565b61133b6121a8565b60018081111561134757fe5b600560003373ffffffffffffffffffffffffffffffffffffffff1673ffffffffffffffffffffffffffffffffffffffff16815260200190815260200160002060020160009054906101000a900460ff1660018111156113a257fe5b14151561143d576040517f08c379a00000000000000000000000000000000000000000000000000000000081526004018080602001828103825260258152602001807f596f7520617265206e6f74206120726567697374657265642073746f7265206f81526020017f776e65722e00000000000000000000000000000000000000000000000000000081525060400191505060405180910390fd5b60c06040519081016040528060015481526020018381526020013373ffffffffffffffffffffffffffffffffffffffff16815260200160018081111561147f57fe5b81526020016000815260200160008152509050806006600060015481526020019081526020016000206000820151816000015560208201518160010190805190602001906114ce92919061205a565b5060408201518160020160006101000a81548173ffffffffffffffffffffffffffffffffffffffff021916908373ffffffffffffffffffffffffffffffffffffffff16021790555060608201518160020160146101000a81548160ff0219169083600181111561153a57fe5b02179055506080820151816003015560a08201518160050155905050600560003373ffffffffffffffffffffffffffffffffffffffff1673ffffffffffffffffffffffffffffffffffffffff16815260200190815260200160002060030160015490806001815401808255809150509060018203906000526020600020016000909192909190915055506001546001805401111515611667576040517f08c379a00000000000000000000000000000000000000000000000000000000081526004018080602001828103825260238152602001807f676c6f62616c53746f7265496420686173207265616368656420697473206c6981526020017f6d6974000000000000000000000000000000000000000000000000000000000081525060400191505060405180910390fd5b6001600081548092919060010191905055505050565b6000809054906101000a900473ffffffffffffffffffffffffffffffffffffffff1681565b60003073ffffffffffffffffffffffffffffffffffffffff1631905090565b60008090505b6006600083815260200190815260200160002060050154811015611960577f101b713e946a23e6ec22a31fd8fc3ec7253754c5af24fdb6ac16dd53b56f045860066000848152602001908152602001600020600401600083815260200190815260200160002060000154600660008581526020019081526020016000206004016000848152602001908152602001600020600101600660008681526020019081526020016000206004016000858152602001908152602001600020600201546006600087815260200190815260200160002060040160008681526020019081526020016000206003016006600088815260200190815260200160002060040160008781526020019081526020016000206004015460066000898152602001908152602001600020600401600088815260200190815260200160002060050160009054906101000a900460ff16604051808781526020018060200186815260200180602001858152602001841515151581526020018381038352888181546001816001161561010002031660029004815260200191508054600181600116156101000203166002900480156118bc5780601f10611891576101008083540402835291602001916118bc565b820191906000526020600020905b81548152906001019060200180831161189f57829003601f168201915b505083810382528681815460018160011615610100020316600290048152602001915080546001816001161561010002031660029004801561193f5780601f106119145761010080835404028352916020019161193f565b820191906000526020600020905b81548152906001019060200180831161192257829003601f168201915b50509850505050505050505060405180910390a180806001019150506116c7565b5050565b600080600060066000878152602001908152602001600020600401600086815260200190815260200160002060020154915083820290507f8b929544acf50af2429000e4f990c5e67cfef3faec7070e650bbdad574c95124816040518082815260200191505060405180910390a18034141515611a6f576040517f08c379a00000000000000000000000000000000000000000000000000000000081526004018080602001828103825260278152602001807f596f75206e65656420746f2073656e6420657861637420616d6f756e7420726581526020017f7175697265642e0000000000000000000000000000000000000000000000000081525060400191505060405180910390fd5b600060066000888152602001908152602001600020600401600087815260200190815260200160002060040154111515611b37576040517f08c379a000000000000000000000000000000000000000000000000000000000815260040180806020018281038252602a8152602001807f54686520726571756573742070726f6475637420686173206e6f206d6f72652081526020017f696e76656e746f72792e0000000000000000000000000000000000000000000081525060400191505060405180910390fd5b83600660008881526020019081526020016000206004016000878152602001908152602001600020600401540360066000888152602001908152602001600020600401600087815260200190815260200160002060040181905550600660008781526020019081526020016000206003015434600660008981526020019081526020016000206003015401111515611c5d576040517f08c379a00000000000000000000000000000000000000000000000000000000081526004018080602001828103825260278152602001807f596f752068617665207265616368656420746865206d61782062616c616e636581526020017f206c696d69742e0000000000000000000000000000000000000000000000000081525060400191505060405180910390fd5b3460066000888152602001908152602001600020600301600082825401925050819055506001925050509392505050565b6006602052806000526040600020600091509050806000015490806001018054600181600116156101000203166002900480601f016020809104026020016040519081016040528092919081815260200182805460018160011615610100020316600290048015611d405780601f10611d1557610100808354040283529160200191611d40565b820191906000526020600020905b815481529060010190602001808311611d2357829003601f168201915b5050505050908060020160009054906101000a900473ffffffffffffffffffffffffffffffffffffffff16908060020160149054906101000a900460ff16908060030154908060050154905086565b600080600090505b600154811015611f79577f20de00de16229a492f0497d9d642ac9645ab9b2e8df48a1ee2d063b86eae07006006600083815260200190815260200160002060000154600660008481526020019081526020016000206001016006600085815260200190815260200160002060020160009054906101000a900473ffffffffffffffffffffffffffffffffffffffff166006600086815260200190815260200160002060020160149054906101000a900460ff166006600087815260200190815260200160002060030154600660008881526020019081526020016000206005015460405180878152602001806020018673ffffffffffffffffffffffffffffffffffffffff1673ffffffffffffffffffffffffffffffffffffffff168152602001856001811115611ec457fe5b60ff168152602001848152602001838152602001828103825287818154600181600116156101000203166002900481526020019150805460018160011615610100020316600290048015611f595780601f10611f2e57610100808354040283529160200191611f59565b820191906000526020600020905b815481529060010190602001808311611f3c57829003601f168201915b505097505050505050505060405180910390a18080600101915050611d97565b600191505090565b600080600080600460003373ffffffffffffffffffffffffffffffffffffffff1673ffffffffffffffffffffffffffffffffffffffff16815260200190815260200160002060009054906101000a900460ff169150600180811115611fe257fe5b600560003373ffffffffffffffffffffffffffffffffffffffff1673ffffffffffffffffffffffffffffffffffffffff16815260200190815260200160002060020160009054906101000a900460ff16600181111561203d57fe5b1461204957600061204c565b60015b905081819350935050509091565b828054600181600116156101000203166002900490600052602060002090601f016020900481019282601f1061209b57805160ff19168380011785556120c9565b828001600101855582156120c9579182015b828111156120c85782518255916020019190600101906120ad565b5b5090506120d69190612200565b5090565b828054828255906000526020600020908101928215612116579160200282015b828111156121155782518255916020019190600101906120fa565b5b5090506121239190612200565b5090565b50805460018160011615610100020316600290046000825580601f1061214d575061216c565b601f01602090049060005260206000209081019061216b9190612200565b5b50565b60c06040519081016040528060008152602001606081526020016000815260200160608152602001600081526020016000151581525090565b60c0604051908101604052806000815260200160608152602001600073ffffffffffffffffffffffffffffffffffffffff168152602001600060018111156121ec57fe5b815260200160008152602001600081525090565b61222291905b8082111561221e576000816000905550600101612206565b5090565b905600a165627a7a723058207b05a920332b28d23884765584cfd2afeba10133c277b63bdb763b9de205a03c0029",
  "source": "pragma solidity ^0.4.23;\n\ncontract Marketplace {\n    address public owner;\n    uint private globalStoreId = 0;\n    uint public globalUnit = 1 ether;\n    bool private globalLockBalances = false;\n    mapping (address => bool) private admins;\n    mapping (address => StoreOwner) public storeOwners;\n    mapping (uint => Store) public stores;\n\n    constructor() public {\n        owner = msg.sender;\n        admins[owner] = true;\n    }\n  \n    // Structs\n    struct StoreOwner {\n        string name;\n        uint256 balance;\n        OwnerState state;\n        uint256[] storeIdsOwned;\n    }\n    struct Store {\n        uint storeId;\n        string name;\n        address storeOwner;\n        StoreState state;\n        uint balance;\n        mapping (uint => Product) products;\n        uint nextProductSku;\n    }\n    struct Product {\n        uint sku;\n        string name;\n        uint price;\n        string description;\n        uint inventory;\n        bool active;\n    }\n  \n    /// Modifiers\n    modifier onlyAdmin () {\n        require (admins[msg.sender] == true, \"You are not an admin.\");\n        _;\n    }\n    modifier onlyStoreOwners() {\n        require (storeOwners[msg.sender].state == OwnerState.Approved, \"You are not a registered store owner.\");\n        _;\n    }\n    modifier onlyOwnerOfStore(uint selectedStoreId) {\n        require (msg.sender == stores[selectedStoreId].storeOwner, \"You do not own the store.\");\n        _;\n    }\n\n    // Enums  \n    enum OwnerState {Deactivated, Approved}\n    enum StoreState {Inactive, Active}\n\n    /// Events\n    event AddedNewStoreOwner (address _address);\n    event AddProduct (uint skuAdded);\n    event RemoveProduct (uint skuRemoved);\n    event StoreIdOwned (uint storeIdOwned);\n    event StoreOwnerName (string storeOwnerName);\n    event StoreInfo (uint storeId, string name, address storeOwner, StoreState state, uint balance, uint nextProductSku);\n    event ProductInfo (uint sku, string name, uint price, string description, uint inventory, bool active);\n    event AmountRequired (uint amountRequired);\n    event WithdrewFunds (uint fundsWithdrawn);\n    event EventIsAdmin (bool isAdmin);\n    event EventIsStoreOwner (OwnerState _ownerState);\n  \n    /// @dev Identify User Role\n    /// @return Booleans for if user is admin and or store owner\n    function identifyUserRole() \n        public \n        view \n        returns (bool _isAdmin, bool _isStoreOwner) \n    {\n        bool isAdmin = admins[msg.sender];\n        bool isStoreOwner = storeOwners[msg.sender].state == OwnerState.Approved ? true : false;\n        return(isAdmin, isStoreOwner);\n    }\n\n    /// @dev Add Store Owner \n    /// @param _address Address of new store owner\n    /// @param _name Name of new store owner\n    function addStoreOwner(\n        address _address, \n        string _name) \n        public\n        onlyAdmin\n    {\n        storeOwners[_address] = StoreOwner({name: _name, balance: 0, state: OwnerState.Approved, storeIdsOwned: new uint[](0)});\n        emit AddedNewStoreOwner(_address);\n    }\n\n    /// @dev Add Store\n    /// @param storeName Name of the new store\n    function addStore(\n        string storeName) \n        public \n        onlyStoreOwners \n    {\n        Store memory newStore = Store({\n            storeId: globalStoreId,\n            name: storeName,\n            storeOwner: msg.sender,\n            state: StoreState.Active,\n            nextProductSku: 0,\n            balance: 0\n        });\n        stores[globalStoreId] = newStore;\n        storeOwners[msg.sender].storeIdsOwned.push(globalStoreId);\n        require(globalStoreId + 1 > globalStoreId, \"globalStoreId has reached its limit\");\n        globalStoreId++;\n    }\n  \n    /// @dev Add product\n    /// @param storeId The id of the store to add the product\n    /// @param name Name of the product\n    /// @param price Price of the product\n    /// @param description Description of the product\n    /// @param inventory Inventory of the product\n    /// @return Product has successfully added\n    function addProduct(\n        uint storeId, \n        string name, \n        uint price, \n        string description, \n        uint inventory) \n        public\n        onlyOwnerOfStore(storeId) \n        returns (bool success) \n    {\n        uint nextSku = stores[storeId].nextProductSku;\n        // Improvement: Use SafeMath library\n        uint productPrice = price * globalUnit;\n        Product memory newProduct = Product({\n            sku: nextSku,\n            name: name,\n            price: productPrice,\n            description: description,\n            inventory: inventory,\n            active: true\n        });\n        stores[storeId].products[nextSku] = newProduct;\n        require(stores[storeId].nextProductSku + 1 > stores[storeId].nextProductSku, \"You have reached the product limit.\");\n        stores[storeId].nextProductSku++;\n        return true;\n    }\n\n    /// @dev Remove product\n    /// @param storeId Id of the store to remove the product\n    /// @param sku Product SKU\n    /// @return Product has successfully been removed\n    function removeProduct(\n        uint storeId, \n        uint sku)\n        public\n        onlyOwnerOfStore(storeId)\n        returns (bool success) \n    {\n        require(stores[storeId].products[sku].active == true, \"You do not have a product with that SKU.\");\n        delete stores[storeId].products[sku];\n        emit RemoveProduct(sku);\n        return true;\n    }\n\n    /// @dev Buy product\n    /// @param storeId Id of the store that has the item\n    /// @param sku Product SKU\n    /// @param quantity Quantity you wish to purchase\n    /// @return Product(s) have successfully been purchased\n    function buyProduct(\n        uint storeId, \n        uint sku, \n        uint quantity) \n        public\n        payable \n        returns (bool success) \n    {\n        uint price = stores[storeId].products[sku].price;\n        // Improvement: Use SafeMath library\n        uint requiredAmount = price * quantity;\n        emit AmountRequired(requiredAmount);\n        require(msg.value == requiredAmount, \"You need to send exact amount required.\");\n        require(stores[storeId].products[sku].inventory > 0, \"The request product has no more inventory.\");\n        stores[storeId].products[sku].inventory = stores[storeId].products[sku].inventory - quantity;\n        require(stores[storeId].balance + msg.value > stores[storeId].balance, \"You have reached the max balance limit.\");\n        stores[storeId].balance += msg.value;\n        return true;\n    }\n\n    /// @dev Withdraw Funds\n    /// @param storeId Id of the store you wish to withdraw funds from\n    /// @return Funds have successfully been withdrawn\n    function withdrawFunds(\n        uint storeId) \n        public\n        payable \n        onlyOwnerOfStore(storeId) \n        returns (bool success) \n    {\n        require(!globalLockBalances, \"Another transfer is in process, please try again later.\");\n        globalLockBalances = true;\n        (msg.sender).transfer(stores[storeId].balance);\n        emit WithdrewFunds(stores[storeId].balance);\n        stores[storeId].balance = 0;\n        globalLockBalances = false;\n        return true;\n    }\n\n    /// @dev Fetch All Store Info\n    /// @return Success\n    function fetchAllStoreInfo() \n        public \n        returns (bool success) \n    {\n        // only transactions can emit events, call functions cannot\n        // you also cannot return dynamic arrays\n        // so if you want to return an indefinite number of stores, it must be a transaction call emitting events\n        for(uint i = 0; i < globalStoreId; i++) {\n            emit StoreInfo(\n                stores[i].storeId,\n                stores[i].name,\n                stores[i].storeOwner,\n                stores[i].state,\n                stores[i].balance,\n                stores[i].nextProductSku\n            );\n        }\n        return true;\n    }\n\n    /// @dev Fetch All Product Info\n    /// @param storeId Id of the store you wish to see products from\n    function fetchAllProductInfo(\n        uint storeId) \n        public\n    {\n        for (uint i = 0; i < stores[storeId].nextProductSku; i++) {\n            emit ProductInfo(\n                stores[storeId].products[i].sku,\n                stores[storeId].products[i].name,\n                stores[storeId].products[i].price,\n                stores[storeId].products[i].description,\n                stores[storeId].products[i].inventory,\n                stores[storeId].products[i].active\n            );\n        }\n    }\n\n    /// @dev Fetch store owner name\n    /// @param _address Address of the store owner\n    /// @return Store Owner's name\n    function fetchStoreOwnerInfo(\n        address _address) \n        public \n        view\n        returns (string storeOwnerName)\n    {\n        return storeOwners[_address].name;\n    }\n\n    /// @dev Fetch Contract Balance\n    /// @return Balance of the contract\n    function fetchContractBalance() \n        public \n        view\n        returns (uint balance) \n    {\n        return address(this).balance;\n    }\n}\n",
  "sourcePath": "/Users/Rocky/code/consensys/marketplace/marketplace/contracts/Marketplace.sol",
  "compiler": {
    "name": "solc",
    "version": "0.4.24+commit.e67f0147.Emscripten.clang"
  },
  "schemaVersion": "2.0.0",
  "updatedAt": "2018-08-24T18:35:59.542Z"
}